:020000040800F2
:1000000000280020BD170008950D00089B0D000872
:10001000A10D0008A70D0008AD0D000800000000AC
:10002000000000000000000000000000B30D000808
:10003000BF0D000800000000CB0D0008D70D000820
:10004000051800080518000805180008051800081C
:10005000051800080518000805180008051800080C
:1000600005180008051800080518000805180008FC
:1000700005180008051800080518000805180008EC
:1000800005180008051800080518000805180008DC
:1000900005180008051800080518000805180008CC
:1000A00005180008051800080518000805180008BC
:1000B000E50D0008051800080000000005180008FC
:1000C00005180008000000000000000005180008E6
:1000D00000000000051800080518000800000000D6
:1000E00005180008051800080518000800000000A1
:1000F0000000000000000000000000000000000000
:0C01000000000000000000005FF808F1A3
:10010C0010B5054C237833B9044B13B10448AFF345
:10011C0000800123237010BD24000020000000008B
:10012C00482E000808B5034B1BB103490348AFF335
:10013C00008008BD0000000028000020482E0008A8
:10014C0090B583B000AF0023FB716BE0FA79FB79BB
:10015C003849895C384AD154FA79FB793749895C3A
:10016C00344AD154FB79364A52F82320FB7935496D
:10017C0031F81330FC791946104601F029FE03467C
:10018C001A462E4B1A55FB792B4AD25CFB7929491E
:10019C00CB5C9A423DD1FB79264AD25CFB7927494C
:1001AC00CB5C9A4235D1FB79244AD25CFB79264947
:1001BC00CB5C9A4214D0FA79FB792049895C224AAB
:1001CC00D154FB791D4AD35C002B27D1FB791F4AF4
:1001DC000121D154FB791E4A642122F813101DE031
:1001EC00FB79194AD35C002B18D1FB79184A32F8E9
:1001FC001320013A91B2164A22F81310FB79144AD3
:10020C0032F81330002B09D1FB79124A0121D15459
:10021C0004E0FB790F4A0021D15400E000BFFB79C8
:10022C000133FB71FB79022B90D900BF00BF0C3757
:10023C00BD4690BD44000020400000204800002036
:10024C00000000200C0000204C000020500000207A
:10025C00580000205400002080B483B000AF034647
:10026C00FB71FB79022B01D900230BE0FB79084AC7
:10027C00D35C012B05D1FB79054A0021D154012314
:10028C0000E0002318460C37BD4680BC704700BF09
:10029C005000002080B483B000AF0346FB71FB79A3
:1002AC00022B01D9002302E0FB79034AD35C1846E8
:1002BC000C37BD4680BC70475400002080B500AFA1
:1002CC00012000F091FC0346002B13D06421012087
:1002DC0000F09AFC084B1B78032B02D9064B00222A
:1002EC001A70054B1B785A1CD1B2034A1170184670
:1002FC0000F040F800BF80BD5E00002080B483B0E9
:10030C0000AF03460A46FB711346BB71FB79174AD3
:10031C00A2FB0323DB08DAB2154B1A70FA79134BE4
:10032C00A3FB0213D9080B469B000B445B00D31AAA
:10033C00DAB20F4B5A70BB790C4AA2FB0323DB08D1
:10034C00DAB20B4B9A70BA79084BA3FB0213D9089B
:10035C000B469B000B445B00D31ADAB2044BDA70E9
:10036C0000BF0C37BD4680BC704700BFCDCCCCCC99
:10037C007000002080B582B000AF0346FB71FB79A2
:10038C00032B73D801A252F823F000BFA903000875
:10039C00DD030008110400084504000800220221B6
:1003AC003F4801F02CFD012204213D4801F027FDBE
:1003BC00012208213A4801F022FD0122102138487F
:1003CC0001F01DFD374B1B78184600F06DF862E00C
:1003DC0001220221324801F012FD00220421304892
:1003EC0001F00DFD012208212D4801F008FD01222C
:1003FC0010212B4801F003FD2A4B5B78184600F0C6
:10040C0053F848E001220221254801F0F8FC0122B2
:10041C000421234801F0F3FC00220821204801F0BC
:10042C00EEFC012210211E4801F0E9FC1D4B9B78CB
:10043C00184600F039F82EE001220221184801F08C
:10044C00DEFC01220421164801F0D9FC012208210E
:10045C00134801F0D4FC00221021114801F0CFFC0C
:10046C00104BDB78184600F01FF814E00122022133
:10047C000B4801F0C4FC01220421094801F0BFFC27
:10048C0001220821064801F0BAFC0122102104487F
:10049C0001F0B5FC00BF00BF0837BD4680BD00BFF2
:1004AC00000801407000002080B582B000AF034608
:1004BC00FB71FB79092B00F27F8101A252F823F02A
:1004CC00F50400083D05000885050008CD05000869
:1004DC00150600085D060008A5060008ED060008D4
:1004EC00350700087D07000800220121C64801F0ED
:1004FC0086FC00220221C44801F081FC0022042168
:10050C00C14801F07CFC00220821BF4801F077FCB7
:10051C0000221021BC4801F072FC00222021BA48B4
:10052C0001F06DFC01224021B74801F068FC67E145
:10053C0001220121B44801F062FC00220221B248E0
:10054C0001F05DFC00220421AF4801F058FC0122AF
:10055C000821AD4801F053FC01221021AA4801F0FA
:10056C004EFC01222021A84801F049FC0122402127
:10057C00A54801F044FC43E100220121A24801F00E
:10058C003EFC00220221A04801F039FC012204218A
:10059C009D4801F034FC002208219B4801F02FFCFF
:1005AC0000221021984801F02AFC012220219648B3
:1005BC0001F025FC00224021934801F020FC1FE1B2
:1005CC0000220121904801F01AFC002202218E48E1
:1005DC0001F015FC002204218B4801F010FC0022D4
:1005EC000821894801F00BFC01221021864801F0FA
:1005FC0006FC01222021844801F001FC002240214C
:10060C00814801F0FCFBFBE0012201217E4801F056
:10061C00F6FB002202217C4801F0F1FB00220421B0
:10062C00794801F0ECFB01220821774801F0E7FB47
:10063C0001221021744801F0E2FB002220217248B3
:10064C0001F0DDFB002240216F4801F0D8FBD7E020
:10065C00002201216C4801F0D2FB012202216A48E0
:10066C0001F0CDFB00220421674801F0C8FB0022F9
:10067C000821654801F0C3FB01221021624801F0FA
:10068C00BEFB00222021604801F0B9FB0022402172
:10069C005D4801F0B4FBB3E0002201215A4801F09F
:1006AC00AEFB01220221584801F0A9FB00220421D3
:1006BC00554801F0A4FB00220821534801F09FFB90
:1006CC0000221021504801F09AFB002220214E48B4
:1006DC0001F095FB002240214B4801F090FB8FE08C
:1006EC0000220121484801F08AFB002202214648E1
:1006FC0001F085FB00220421434801F080FB01221C
:10070C000821414801F07BFB012210213E4801F0F9
:10071C0076FB012220213C4801F071FB0122402193
:10072C00394801F06CFB6BE000220121364801F0E6
:10073C0066FB00220221344801F061FB00220421F7
:10074C00314801F05CFB002208212F4801F057FBD7
:10075C00002210212C4801F052FB002220212A48B3
:10076C0001F04DFB00224021274801F048FB47E0F7
:10077C0000220121244801F042FB002202212248E0
:10078C0001F03DFB002204211F4801F038FB002240
:10079C0008211D4801F033FB012210211A4801F0F9
:1007AC002EFB00222021184801F029FB00224021B9
:1007BC00154801F024FB23E001220121124801F02D
:1007CC001EFB01220221104801F019FB0122042119
:1007DC000D4801F014FB012208210B4801F00FFB1E
:1007EC0001221021084801F00AFB012220210648B1
:1007FC0001F005FB01224021034801F000FB00BF82
:10080C0000BF0837BD4680BD000C014080B582B0EA
:10081C0000AF03460A46FB711346BB714FF47A7165
:10082C00002000F0F1F9FB790749BA79CA54064B5C
:10083C001B78054A527811461846FFF75FFD00BF3A
:10084C000837BD4680BD00BF7800002080B500AFE2
:10085C00002000F0C9F90346002B18D04FF47A7130
:10086C00002000F0D1F90B4B1B78013BDAB2094B9D
:10087C001A70084B5B78013BDAB2064B5A70054B89
:10088C001B78044A527811461846FFF737FD00BF13
:10089C0080BD00BF7800002080B582B000AF034659
:1008AC000A46FB711346BB71FB79002B29D1BB792E
:1008BC00022B05D1002220212D4801F0A0FA04E0E2
:1008CC00012220212A4801F09AFABB79032B05D189
:1008DC0000224021264801F092FA04E00122402136
:1008EC00234801F08CFABB79042B05D1002280211E
:1008FC001F4801F084FA04E0012280211C4801F019
:10090C007EFAFB79012B2FD1BB79022B06D1002269
:10091C004FF48071164801F072FA05E001224FF491
:10092C008071134801F06BFABB79032B06D10022BE
:10093C004FF400710E4801F062FA05E001224FF409
:10094C0000710B4801F05BFABB79042B06D1002235
:10095C004FF48061064801F052FA05E001224FF491
:10096C008061034801F04BFA00BF0837BD4680BDDB
:10097C000008014080B500AF00F040FF00F030F8F7
:10098C0000F0BEF800F068F8114801F09FFE0A2153
:10099C00002000F039F90A21012000F035F90A2174
:1009AC00022000F031F90B4B05221A700A4B02227F
:1009BC001A700A4B03221A7000F084FB00F01CFA28
:1009CC0000F0C2FA00F082FDFFF778FCF4E700BFFC
:1009DC00800000207B0000207600002074000020A6
:1009EC0080B590B000AF07F11803282200211846FB
:1009FC0002F01CFA3B1D00221A605A609A60DA6001
:100A0C001A610223BB610123BB621023FB6200232A
:100A1C007B6307F11803184601F022FA0346002BFA
:100A2C0001D000F0DBF80F237B600023BB600023B8
:100A3C00FB6000233B6100237B613B1D00211846BA
:100A4C0001F08EFC0346002B01D000F0C7F800BF6C
:100A5C004037BD4680BD000080B586B000AF07F1C1
:100A6C00080300221A605A609A60DA603B46002242
:100A7C001A605A60214B4FF080421A601F4B41F6AE
:100A8C003F725A601D4B00229A601C4B0922DA609F
:100A9C001A4B00221A61194B00229A61174801F077
:100AAC00C5FD0346002B01D000F098F84FF480539D
:100ABC00BB6007F108031946104801F043FF0346D9
:100ACC00002B01D000F08AF800233B6000237B60F0
:100ADC003B461946094802F01BF90346002B01D08E
:100AEC0000F07CF8054B5B68044AD2681146184646
:100AFC0000F0A8F800BF1837BD4680BD800000206C
:100B0C0080B586B000AF07F1080300221A605A6066
:100B1C009A60DA60284B9B69274A43F0040393617F
:100B2C00254B9B6903F004037B607B68224B9B691C
:100B3C00214A43F0080393611F4B9B6903F00803A0
:100B4C003B603B68002240F2FE711C4801F057F9F3
:100B5C0000227F211A4801F052F940F2FE73BB606B
:100B6C000123FB6000233B6102237B6107F1080337
:100B7C001946124800F0B2FF7F23BB600123FB60D3
:100B8C0000233B6102237B6107F1080319460C48E3
:100B9C0000F0A4FF4FF46053BB600023FB60012303
:100BAC003B6107F108031946044800F097FF00BFAA
:100BBC001837BD4680BD00BF001002400008014040
:100BCC00000C014080B582B000AF786000F058F89E
:100BDC00FFF7B6FA00BF0837BD4680BD80B400AF42
:100BEC0072B600BFFEE7000080B483B000AF0346CE
:100BFC00FB71FB79034AD35C18460C37BD4680BCAD
:100C0C00704700BF6C00002080B483B000AF034677
:100C1C003960FB71FB79084A0021D154074B1A68E3
:100C2C00FB793968B1FBF2F2054941F8232000BF8A
:100C3C000C37BD4680BC70476C00002014000020AF
:100C4C006000002080B584B000AF7860396001F09E
:100C5C00C5FCF8607B6801333A68013202FB03F390
:100C6C004FF47A7202FB03F2FB68B2FBF3F3034A14
:100C7C00136000BF1037BD4680BD00BF14000020BC
:100C8C0080B483B000AF0023FB711AE0FB79114AEA
:100C9C0052F82330002B11D0FB790E4A52F8232046
:100CAC00013A0C4941F82320FB790A4A52F82330C7
:100CBC00002B03D1FB79084A0121D154FB79013374
:100CCC00FB71FB79022BE1D900BF00BF0C37BD468D
:100CDC0080BC7047600000206C00002080B485B0A0
:100CEC0000AF154B9B69144A43F001039361124BFF
:100CFC009B6903F00103BB60BB680F4BDB690E4AB9
:100D0C0043F08053D3610C4BDB6903F080537B6061
:100D1C007B680A4B5B68FB60FB6823F0E063FB605D
:100D2C00FB6843F08063FB60044AFB68536000BFC0
:100D3C001437BD4680BC70470010024000000140D3
:100D4C0080B584B000AF78607B681B68B3F1804FCE
:100D5C0013D10C4BDB690B4A43F00103D361094BF4
:100D6C00DB6903F00103FB60FB68002200211C20FF
:100D7C0000F07DFE1C2000F096FE00BF1037BD4633
:100D8C0080BD00BF0010024080B400AFFEE780B40D
:100D9C0000AFFEE780B400AFFEE780B400AFFEE723
:100DAC0080B400AFFEE780B400AF00BFBD4680BC8E
:100DBC00704780B400AF00BFBD4680BC704780B4A4
:100DCC0000AF00BFBD4680BC704780B500AF00F0DF
:100DDC005BFD00BF80BD000080B500AF024801F094
:100DEC00C1FC00BF80BD00BF8000002080B400AFFC
:100DFC0000BFBD4680BC704780B500AF4D4B1B7823
:100E0C00063B032B00F28A8001A252F823F000BFAC
:100E1C002D0E0008710E0008B50E0008E50E000836
:100E2C00FFF714FD444B5B78002B11D1414B07228B
:100E3C001A7002210020FFF72FFD03210120FFF77C
:100E4C002BFD3E4B1B7819460120FFF7DFFC67E0BA
:100E5C000020FFF701FA0346002B61D0354B00222E
:100E6C001A705DE0FFF7F2FC334B5B78002B03D07C
:100E7C00314B1B78002B55D12E4B08221A700421B4
:100E8C000020FFF709FD02210120FFF705FD2C4B87
:100E9C001B7819460020FFF7B9FC2A4B1B78194622
:100EAC000120FFF7B3FC3DE0FFF7D0FC224B1B7891
:100EBC00002B39D11F4B09221A7003210020FFF798
:100ECC00EBFC02210120FFF7E7FC1C4B1B781946B9
:100EDC000020FFF79BFC27E0FFF7B8FC164B1B78B4
:100EEC00002B03D0144B5B78002B1FD1114B062227
:100EFC001A7002210020FFF7CFFC04210120FFF71C
:100F0C00CBFC104B1B7819460020FFF77FFC0C4BD9
:100F1C001B7819460120FFF779FC07E000BF06E0BB
:100F2C0000BF04E000BF02E000BF00E000BF00BF54
:100F3C0080BD00BF7D0000207800002076000020DE
:100F4C00740000207B00002080B500AF5C4B1B7848
:100F5C000A3B032B00F2A98001A252F823F000BF38
:100F6C007D0F0008CD0F00081B1000086910000849
:100F7C000020FFF739FE0346002B05D10020FFF7B8
:100F8C006BF90346002B03D04D4B00221A708EE0F8
:100F9C000120FFF761F90346002B00F08880484BD5
:100FAC000B221A7002210020FFF776FC032101208E
:100FBC00FFF772FC44F620610020FFF725FE76E077
:100FCC000020FFF711FE0346002B05D10020FFF790
:100FDC0043F90346002B03D0394B00221A7068E00A
:100FEC000120FFF739F90346002B62D0344B0C2259
:100FFC001A7004210020FFF74FFC02210120FFF79B
:10100C004BFC44F620610020FFF7FEFD51E0002070
:10101C00FFF7EAFD0346002B05D10020FFF71CF972
:10102C000346002B03D0264B00221A7043E001200C
:10103C00FFF712F90346002B3DD0214B0D221A70FD
:10104C0003210020FFF728FC02210120FFF724FCDC
:10105C0044F620610020FFF7D7FD2CE00020FFF7BD
:10106C00C3FD0346002B05D10020FFF7F5F803461E
:10107C00002B03D0124B00221A701EE00120FFF748
:10108C00EBF80346002B18D00D4B0A221A700221E4
:10109C000020FFF701FC04210120FFF7FDFB44F6C3
:1010AC0020610020FFF7B0FD07E000BF06E000BFA5
:1010BC0004E000BF02E000BF00E000BF00BF80BD45
:1010CC007D00002080B500AFCB4B1B78052B00F2C8
:1010DC00E78101A252F823F0FD1000086911000805
:1010EC00D91100089D120008511300081D140008A6
:1010FC00C14B01221A7000210020FFF787FB002151
:10110C000120FFF783FB41F288310020FFF77CFDC3
:10111C0001210120FFF7F2F800222021B74800F04E
:10112C006EFE00224021B54800F069FE00228021AD
:10113C00B24800F064FE00224FF48071AF4800F01A
:10114C005EFE00224FF40071AC4800F058FE002205
:10115C004FF48061A94800F052FEACE10020FFF78B
:10116C0043FD0346002B05D10220FFF775F803461B
:10117C00002B17D0A04B06221A7002210020FFF77B
:10118C008BFB04210120FFF787FB9D4B1B78194635
:10119C000020FFF73BFB9B4B1B7819460120FFF708
:1011AC0035FB7FE10020FFF757F80346002B00F0DA
:1011BC00798102210220FFF7A1F88F4B02221A70CD
:1011CC0041F288310020FFF71FFD6BE10020FFF793
:1011DC000BFD0346002B02D0874B00221A70022015
:1011EC00FFF73AF80346002B10D0834B0A221A70F3
:1011FC0002210020FFF750FB04210120FFF74CFBDC
:10120C0043F698210020FFF7FFFC19E00020FFF7C0
:10121C0023F80346002B13D0774B03221A700221BC
:10122C000020FFF739FB02210120FFF735FB0321DA
:10123C000320FFF763F841F288310020FFF7E4FC4C
:10124C000220FFF7D1FC0346002B00F02D814FF458
:10125C00FA710220FFF7D8FC2021684800F0E7FD66
:10126C004021664800F0E3FD8021644800F0DFFD7A
:10127C004FF48071614800F0DAFD4FF400715F4863
:10128C0000F0D5FD4FF480615C4800F0D0FD0BE11F
:10129C000020FFF7A9FC0346002B02D0564B00227E
:1012AC001A700220FEF7D8FF0346002B1AD0544BBD
:1012BC001A78554B1A70504B0E221A7002210020CE
:1012CC00FFF7EAFA02210120FFF7E6FA43F698212C
:1012DC000020FFF799FC4A4B1B7819460320FFF7B7
:1012EC000DF819E00020FEF7B7FF0346002B13D0D2
:1012FC00414B04221A7003210020FFF7CDFA032181
:10130C000120FFF7C9FA04210420FEF7F7FF41F290
:10131C0088310020FFF778FC0220FFF765FC0346BC
:10132C00002B00F0C3804FF4FA710220FFF76CFC25
:10133C002021324800F07BFD4FF480712F4800F0E3
:10134C0076FDB3E00020FFF74FFC0346002B02D0E4
:10135C00294B00221A700220FEF77EFF0346002B59
:10136C001AD02A4B1A78284B1A70234B0F221A705A
:10137C0003210020FFF790FA03210120FFF78CFADC
:10138C0043F698210020FFF73FFC204B1B781946B1
:10139C000420FEF7B3FF19E00020FEF75DFF0346C3
:1013AC00002B13D0144B05221A7004210020FFF7D8
:1013BC0073FA04210120FFF76FFA05210520FEF7CF
:1013CC009DFF41F288310020FFF71EFC0220FFF741
:1013DC000BFC0346002B6BD04FF4FA710220FFF785
:1013EC0013FC4021054800F022FD4FF40071034826
:1013FC0000F01DFD5CE000BF7D00002000080140F6
:10140C007B000020740000207C000020760000206F
:10141C000020FFF7E9FB0346002B02D0274B0022EC
:10142C001A700220FEF718FF0346002B1AD0244B2B
:10143C001A78244B1A70214B10221A7004210020A8
:10144C00FFF72AFA04210120FFF726FA43F6982128
:10145C000020FFF7D9FB1A4B1B7819460520FEF725
:10146C004DFF08E00020FEF7F7FE0346002B02D0EC
:10147C00124B00221A700220FFF7B6FB0346002B1A
:10148C0018D04FF4FA710220FFF7BEFB80210E48F2
:10149C0000F0CDFC4FF480610B4800F0C8FC09E073
:1014AC0000BF08E000BF06E000BF04E000BF02E0A0
:1014BC0000BF00E000BF00BF80BD00BF7D0000206A
:1014CC00740000207C0000200008014080B500AFB3
:1014DC00B24B1B78102B00F0E480102B00F35581DD
:1014EC000E2B02D00F2B71D04FE10120FEF7B4FE72
:1014FC000346002B17D0AA4B1B780133DAB2A84B4A
:10150C001A70A74B1B78632B02D9A54B05221A70B6
:10151C00A34B1B7819460320FEF7F0FE43F69821E7
:10152C000020FFF771FB0120FEF7B4FE0346002BF1
:10153C001CD00220FFF758FB0346002B16D0C82105
:10154C000220FFF761FB964B1B780133DAB2944B08
:10155C001A70934B1B78632B02D9914B05221A708E
:10156C008F4B1B7819460320FEF7C8FE0220FEF7AE
:10157C0073FE0346002B18D0894B1A78894B1A70CE
:10158C00884B1A78884B1B789A4202D8864B0222D9
:10159C001A70844B1A78844B1B78D31ADAB2834BAB
:1015AC001A707E4B00221A70F1E00020FFF71CFB32
:1015BC000346002B06D10020FEF74EFE0346002BFF
:1015CC0000F0E580754B00221A70E0E00120FEF778
:1015DC0043FE0346002B19D0714B1B780133DAB252
:1015EC006F4B1A706E4B1A78704B1B789A4202D361
:1015FC006B4B02221A706A4B1B7819460320FEF7BC
:10160C007DFE43F698210020FFF7FEFA0120FEF73D
:10161C0041FE0346002B1ED00220FFF7E5FA0346DD
:10162C00002B18D0C8210220FFF7EEFA5C4B1B7878
:10163C000133DAB25A4B1A70594B1A785B4B1B7840
:10164C009A4202D3564B02221A70554B1B781946FC
:10165C000320FEF753FE0220FEF7FEFD0346002B8F
:10166C000FD04F4B1A78504B1A704E4B1A784E4B7A
:10167C001B78D31ADAB24D4B1A70484B00221A70F1
:10168C0087E00020FFF7B0FA0346002B05D10020BD
:10169C00FEF7E2FD0346002B7BD0404B00221A7074
:1016AC0077E00120FEF7D8FD0346002B19D03C4B08
:1016BC001B780133DAB23A4B1A70394B1A78394B22
:1016CC001B789A4202D3364B03221A70344B1B7888
:1016DC0019460320FEF712FE43F698210020FFF76F
:1016EC0093FA0120FEF7D6FD0346002B1ED00220F4
:1016FC00FFF77AFA0346002B18D0C8210220FFF717
:10170C0083FA274B1B780133DAB2254B1A70244B22
:10171C001A78244B1B789A4202D3214B03221A705D
:10172C001F4B1B7819460320FEF7E8FD0220FEF73D
:10173C0093FD0346002B18D0194B1A781B4B1A70CB
:10174C001A4B1A78184B1B789A4202D8164B022265
:10175C001A70164B1A78144B1B781344DAB2114BCF
:10176C001A700E4B00221A7015E00020FFF73CFA9D
:10177C000346002B05D10020FEF76EFD0346002B1F
:10178C0009D0064B00221A7005E000BF04E000BF30
:10179C0002E000BF00E000BF00BF80BD7D00002064
:1017AC007C0000207B0000207600002074000020CC
:1017BC00FFF71CFB0B480C490C4A002302E0D458E1
:1017CC00C4500433C4188C42F9D3094A094C002381
:1017DC0001E013600432A242FBD301F003FBFFF7DC
:1017EC00C9F8704700000020240000208C2E00084F
:1017FC0024000020CC000020FEE7000080B500AFE4
:10180C00084B1B68074A43F010031360032000F0D9
:10181C0023F90F2000F008F8FFF760FA00231846B0
:10182C0080BD00BF0020024080B582B000AF786060
:10183C00124B1A68124B1B7819464FF47A73B3FB90
:10184C00F1F3B2FBF3F3184600F03BF90346002B1F
:10185C0001D001230EE07B680F2B0AD80022796897
:10186C004FF0FF3000F003F9064A7B681360002349
:10187C0000E0012318460837BD4680BD1800002043
:10188C00200000201C00002080B400AF054B1B780A
:10189C001A46054B1B681344034A136000BFBD4630
:1018AC0080BC704720000020C800002080B400AF2E
:1018BC00024B1B681846BD4680BC7047C800002010
:1018CC0080B485B000AF78607B6803F00703FB60E1
:1018DC000C4BDB68BB60BA684FF6FF031340BB6070
:1018EC00FB681A02BB68134343F0BF6343F4003335
:1018FC00BB60044ABB68D36000BF1437BD4680BCD4
:10190C00704700BF00ED00E080B400AF044BDB6813
:10191C001B0A03F007031846BD4680BC704700BF86
:10192C0000ED00E080B483B000AF0346FB7197F983
:10193C000730002B0BDBFB7903F01F02064997F9EC
:10194C0007305B09012000FA02F241F8232000BFA6
:10195C000C37BD4680BC704700E100E080B483B01A
:10196C0000AF03463960FB7197F90730002B0ADB97
:10197C003B68DAB20C4997F907301201D2B20B442A
:10198C0083F800230AE03B68DAB20849FB7903F0DC
:10199C000F03043B1201D2B20B441A7600BF0C3772
:1019AC00BD4680BC704700BF00E100E000ED00E0E8
:1019BC0080B489B000AFF860B9607A60FB6803F05E
:1019CC000703FB61FB69C3F10703042B28BF042346
:1019DC00BB61FB690433062B02D9FB69033B00E0B6
:1019EC0000237B614FF0FF32BB6902FA03F3DA4349
:1019FC00BB681A407B699A404FF0FF317B6901FA52
:101A0C0003F3D9437B680B40134318462437BD4678
:101A1C0080BC704780B582B000AF78607B68013BBA
:101A2C00B3F1807F01D301230FE00A4A7B68013BAD
:101A3C0053600F214FF0FF30FFF790FF054B002252
:101A4C009A60044B07221A60002318460837BD46DB
:101A5C0080BD00BF10E000E080B582B000AF7860C0
:101A6C007868FFF72DFF00BF0837BD4680BD80B5F5
:101A7C0086B000AF0346B9607A60FB7300237B61CC
:101A8C00FFF742FF78617A68B9687869FFF790FFD1
:101A9C00024697F90F3011461846FFF75FFF00BF5B
:101AAC001837BD4680BD80B582B000AF0346FB71D0
:101ABC0097F907301846FFF735FF00BF0837BD46CA
:101ACC0080BD80B582B000AF78607868FFF7A2FF68
:101ADC00034618460837BD4680BD000080B48BB065
:101AEC0000AF7860396000237B6200233B6248E1E1
:101AFC0001227B6A02FA03F3FB613B681B68FA69FB
:101B0C001340BB61BA69FB699A4240F037813B686C
:101B1C005B68A34A93425ED0A14A934275D8A14A0E
:101B2C00934258D09F4A93426FD89F4A934252D0C7
:101B3C009D4A934269D89D4A93424CD09B4A93420A
:101B4C0063D89B4A934246D0994A93425DD8122B54
:101B5C002AD8122B59D801A252F823F0E31B000803
:101B6C00BD1B0008CF1B0008111C0008171C000827
:101B7C00171C0008171C0008171C0008171C00086D
:101B8C00171C0008171C0008171C0008171C00085D
:101B9C00171C0008171C0008171C0008171C00084D
:101BAC00C51B0008D91B0008824A934213D02CE0B5
:101BBC003B68DB683B6229E03B68DB6804333B62D3
:101BCC0024E03B68DB6808333B621FE03B68DB6862
:101BDC000C333B621AE03B689B68002B02D1042358
:101BEC003B6213E03B689B68012B05D108233B62E9
:101BFC007B68FA691A6109E008233B627B68FA6921
:101C0C005A6103E000233B6200E000BFBB69FF2B7D
:101C1C0001D87B6801E07B6804337B61BB69FF2BD7
:101C2C0002D87B6A9B0002E07B6A083B9B003B610D
:101C3C007B691A680F213B6901FA03F3DB431A40F5
:101C4C00396A3B6901FA03F31A437B691A603B68F2
:101C5C005B6803F08053002B00F09080564B9B691F
:101C6C00554A43F001039361534B9B6903F0010305
:101C7C00BB60BB68514A7B6A9B08023352F8233025
:101C8C00FB607B6A03F003039B000F2202FA03F351
:101C9C00DB43FA681340FB607B68494A93420DD0E2
:101CAC007B68484A934207D07B68474A934201D1EC
:101CBC00022304E0032302E0012300E000237A6AFC
:101CCC0002F0030292009340FA681343FB603B4915
:101CDC007B6A9B080233FA6841F823203B685B68F7
:101CEC0003F48013002B06D0384B9A683749BB6934
:101CFC0013438B6006E0354B9A68BB69DB43334971
:101D0C0013408B603B685B6803F40013002B06D018
:101D1C002E4BDA682D49BB691343CB6006E02B4B85
:101D2C00DA68BB69DB4329491340CB603B685B68CD
:101D3C0003F40033002B06D0244B5A682349BB69AB
:101D4C0013434B6006E0214B5A68BB69DB431F49C8
:101D5C0013404B603B685B6803F48033002B06D068
:101D6C001A4B1A681949BB6913430B6006E0174BF1
:101D7C001A68BB69DB43154913400B607B6A01335E
:101D8C007B623B681A687B6A22FA03F3002B7FF4B0
:101D9C00AFAE00BF00BF2C37BD4680BC704700BF44
:101DAC000000321000003110000022100000211041
:101DBC000000121000001110001002400000014041
:101DCC0000080140000C01400010014000040140DB
:101DDC0080B485B000AF78600B467B807B689A68D6
:101DEC007B881340002B02D00123FB7301E00023FE
:101DFC00FB73FB7B18461437BD4680BC704780B420
:101E0C0083B000AF78600B467B8013467B707B7889
:101E1C00002B03D07A887B681A6103E07B881A0454
:101E2C007B681A6100BF0C37BD4680BC704780B41C
:101E3C0085B000AF78600B467B807B68DB68FB600D
:101E4C007A88FB6813401A04FB68D9437B880B40E3
:101E5C001A437B681A6100BF1437BD4680BC7047BB
:101E6C0080B586B000AF78607B68002B01D1012370
:101E7C006CE27B681B6803F00103002B00F0878089
:101E8C00924B5B6803F00C03042B0CD08F4B5B68FC
:101E9C0003F00C03082B12D18C4B5B6803F48033DA
:101EAC00B3F5803F0BD1894B1B6803F40033002B37
:101EBC006CD07B685B68002B68D1012346E27B68A1
:101ECC005B68B3F5803F06D1804B1B687F4A43F4B7
:101EDC00803313602EE07B685B68002B0CD17B4B4E
:101EEC001B687A4A23F480331360784B1B68774A5B
:101EFC0023F4802313601DE07B685B68B3F5A02F8F
:101F0C000CD1724B1B68714A43F4802313606F4BE6
:101F1C001B686E4A43F4803313600BE06B4B1B68F9
:101F2C006A4A23F480331360684B1B68674A23F4B6
:101F3C00802313607B685B68002B13D0FFF7B6FC23
:101F4C00386108E0FFF7B2FC02463B69D31A642BF8
:101F5C0001D90323FAE15D4B1B6803F40033002B1A
:101F6C00F0D014E0FFF7A2FC386108E0FFF79EFC0C
:101F7C0002463B69D31A642B01D90323E6E1534B88
:101F8C001B6803F40033002BF0D100E000BF7B682A
:101F9C001B6803F00203002B63D04C4B5B6803F00F
:101FAC000C03002B0BD0494B5B6803F00C03082B84
:101FBC001CD1464B5B6803F48033002B16D1434B8A
:101FCC001B6803F00203002B05D07B681B69012BF7
:101FDC0001D00123BAE13D4B1B6823F0F8027B686A
:101FEC005B69DB00394913430B603AE07B681B6982
:101FFC00002B20D0364B01221A60FFF757FC3861BA
:10200C0008E0FFF753FC02463B69D31A022B01D9B7
:10201C0003239BE12D4B1B6803F00203002BF0D034
:10202C002A4B1B6823F0F8027B685B69DB002749AD
:10203C0013430B6015E0264B00221A60FFF736FCA9
:10204C00386108E0FFF732FC02463B69D31A022BD9
:10205C0001D903237AE11D4B1B6803F00203002B0B
:10206C00F0D17B681B6803F00803002B3AD07B6827
:10207C009B69002B19D0174B01221A60FFF716FC35
:10208C00386108E0FFF712FC02463B69D31A022BB9
:10209C0001D903235AE10D4B5B6A03F00203002BB9
:1020AC00F0D0012000F0A4FA1CE00A4B00221A60C8
:1020BC00FFF7FCFB38610FE0FFF7F8FB02463B69CA
:1020CC00D31A022B08D9032340E100BF00100240B1
:1020DC0000004242800442429E4B5B6A03F00203C2
:1020EC00002BE9D17B681B6803F00403002B00F084
:1020FC00A6800023FB75974BDB6903F08053002B04
:10210C000DD1944BDB69934A43F08053D361914BCF
:10211C00DB6903F08053BB60BB680123FB758E4BFE
:10212C001B6803F48073002B18D18B4B1B688A4AF5
:10213C0043F480731360FFF7B9FB386108E0FFF7D5
:10214C00B5FB02463B69D31A642B01D90323FDE08E
:10215C00814B1B6803F48073002BF0D07B68DB6829
:10216C00012B06D17B4B1B6A7A4A43F001031362A5
:10217C002DE07B68DB68002B0CD1764B1B6A754A13
:10218C0023F001031362734B1B6A724A23F004039E
:10219C0013621CE07B68DB68052B0CD16D4B1B6A52
:1021AC006C4A43F0040313626A4B1B6A694A43F09E
:1021BC00010313620BE0674B1B6A664A23F00103B1
:1021CC001362644B1B6A634A23F0040313627B683B
:1021DC00DB68002B15D0FFF769FB38610AE0FFF7CD
:1021EC0065FB02463B69D31A41F28832934201D90E
:1021FC000323ABE0574B1B6A03F00203002BEED01A
:10220C0014E0FFF753FB38610AE0FFF74FFB02467F
:10221C003B69D31A41F28832934201D9032395E0EA
:10222C004C4B1B6A03F00203002BEED1FB7D012B00
:10223C0005D1484BDB69474A23F08053D3617B6857
:10224C00DB69002B00F08180424B5B6803F00C03D0
:10225C00082B61D07B68DB69022B46D13F4B0022F7
:10226C001A60FFF723FB386108E0FFF71FFB0246FB
:10227C003B69D31A022B01D9032367E0354B1B684A
:10228C0003F00073002BF0D17B681B6AB3F5803F21
:10229C0008D1304B5B6823F400327B689B682D4976
:1022AC0013434B602B4B5B6823F474127B68196AE5
:1022BC007B685B6A0B43274913434B60274B012216
:1022CC001A60FFF7F3FA386108E0FFF7EFFA0246FD
:1022DC003B69D31A022B01D9032337E01D4B1B6832
:1022EC0003F00073002BF0D02FE01C4B00221A607F
:1022FC00FFF7DCFA386108E0FFF7D8FA02463B69D1
:10230C00D31A022B01D9032320E0124B1B6803F0D4
:10231C000073002BF0D118E07B68DB69012B01D135
:10232C00012313E00B4B5B68FB60FB6803F480320A
:10233C007B681B6A9A4206D1FB6803F470127B68B7
:10234C005B6A9A4201D0012300E00023184618373B
:10235C00BD4680BD0010024000700040600042424B
:10236C0080B584B000AF786039607B68002B01D1F8
:10237C000123D0E06A4B1B6803F007033A689A42CA
:10238C0010D9674B1B6823F0070265493B68134360
:10239C000B60634B1B6803F007033A689A4201D049
:1023AC000123B8E07B681B6803F00203002B20D0EC
:1023BC007B681B6803F00403002B05D0594B5B684A
:1023CC00584A43F4E06353607B681B6803F00803CE
:1023DC00002B05D0534B5B68524A43F46053536057
:1023EC00504B5B6823F0F0027B689B684D491343AC
:1023FC004B607B681B6803F00103002B40D07B68AB
:10240C005B68012B07D1474B1B6803F40033002B8F
:10241C0015D101237FE07B685B68022B07D1414B10
:10242C001B6803F00073002B09D1012373E03D4BB3
:10243C001B6803F00203002B01D101236BE0394B25
:10244C005B6823F003027B685B68364913434B607F
:10245C00FFF72CFAF8600AE0FFF728FA0246FB684F
:10246C00D31A41F28832934201D9032353E02D4B06
:10247C005B6803F00C027B685B689B009A42EBD1B3
:10248C00274B1B6803F007033A689A4210D2244B7F
:10249C001B6823F0070222493B6813430B60204B57
:1024AC001B6803F007033A689A4201D0012332E01B
:1024BC007B681B6803F00403002B08D0194B5B6886
:1024CC0023F4E0627B68DB68164913434B607B683E
:1024DC001B6803F00803002B09D0124B5B6823F434
:1024EC0060527B681B69DB000E4913434B6000F0A4
:1024FC0021F802460B4B5B681B0903F00F030A49DA
:10250C00CB5C22FA03F3094A1360094B1B6818468B
:10251C00FFF78AF9002318461037BD4680BD00BF6F
:10252C000020024000100240602E0008180000201D
:10253C001C00002080B487B000AF0023FB60002398
:10254C00BB6000237B6100237B6000233B611E4B3F
:10255C005B68FB60FB6803F00C03042B02D0082BB8
:10256C0003D027E0194B3B6127E0FB689B0C03F081
:10257C000F03174AD35C7B60FB6803F48033002B9A
:10258C0010D0114B5B685B0C03F00103114AD35C58
:10259C00BB607B680D4A02FB03F2BB68B2FBF3F332
:1025AC007B6104E07B680C4A02FB03F37B617B6973
:1025BC003B6102E0054B3B6100BF3B6918461C3791
:1025CC00BD4680BC704700BF0010024000127A006C
:1025DC00702E0008802E000800093D0080B400AF6A
:1025EC00024B1B681846BD4680BC70471800002083
:1025FC0080B485B000AF78600A4B1B680A4AA2FB16
:10260C0003235B0A7A6802FB03F3FB6000BFFB68E1
:10261C005A1EFA60002BF9D100BF00BF1437BD461B
:10262C0080BC704718000020D34D621080B582B07A
:10263C0000AF78607B68002B01D1012341E07B68FF
:10264C0093F83D30DBB2002B06D17B68002283F877
:10265C003C207868FEF774FB7B68022283F83D20EF
:10266C007B681A687B6804331946104600F056FAEA
:10267C007B68012283F846207B68012283F83E2088
:10268C007B68012283F83F207B68012283F840207D
:10269C007B68012283F841207B68012283F8422069
:1026AC007B68012283F843207B68012283F8442055
:1026BC007B68012283F845207B68012283F83D204A
:1026CC00002318460837BD4680BD000080B485B095
:1026DC0000AF78607B6893F83D30DBB2012B01D002
:1026EC00012335E07B68022283F83D207B681B6860
:1026FC00DA687B681B6842F00102DA607B681B6851
:10270C00164A934209D07B681B68B3F1804F04D002
:10271C007B681B68124A934211D17B681B689B68CB
:10272C0003F00703FB60FB68062B10D07B681B686B
:10273C001A687B681B6842F001021A6007E07B682C
:10274C001B681A687B681B6842F001021A60002340
:10275C0018461437BD4680BC704700BF002C0140A2
:10276C000004004080B584B000AF78607B681B68C3
:10277C00DB68FB607B681B681B69BB60BB6803F094
:10278C000203002B20D0FB6803F00203002B1BD0AC
:10279C007B681B686FF002021A617B6801221A7752
:1027AC007B681B689B6903F00303002B03D07868DC
:1027BC0000F098F905E0786800F08BF9786800F083
:1027CC009AF97B6800221A77BB6803F00403002B8C
:1027DC0020D0FB6803F00403002B1BD07B681B6824
:1027EC006FF004021A617B6802221A777B681B68FF
:1027FC009B6903F44073002B03D0786800F072F9E6
:10280C0005E0786800F065F9786800F074F97B6889
:10281C0000221A77BB6803F00803002B20D0FB685A
:10282C0003F00803002B1BD07B681B686FF00802B9
:10283C001A617B6804221A777B681B68DB6903F0DA
:10284C000303002B03D0786800F04CF905E078689E
:10285C0000F03FF9786800F04EF97B6800221A7797
:10286C00BB6803F01003002B20D0FB6803F01003AF
:10287C00002B1BD07B681B686FF010021A617B6801
:10288C0008221A777B681B68DB6903F44073002B02
:10289C0003D0786800F026F905E0786800F019F9A3
:1028AC00786800F028F97B6800221A77BB6803F07F
:1028BC000103002B0CD0FB6803F00103002B07D0A5
:1028CC007B681B686FF001021A617868FEF77AF971
:1028DC00BB6803F08003002B0CD0FB6803F0800373
:1028EC00002B07D07B681B686FF080021A61786838
:1028FC0000F06FFABB6803F04003002B0CD0FB68B0
:10290C0003F04003002B07D07B681B686FF040027C
:10291C001A61786800F0F8F8BB6803F02003002B0C
:10292C000CD0FB6803F02003002B07D07B681B68DE
:10293C006FF020021A61786800F042FA00BF10377D
:10294C00BD4680BD80B584B000AF7860396000238F
:10295C00FB737B6893F83C30012B01D10223B4E06C
:10296C007B68012283F83C207B68022283F83D209F
:10297C007B681B689B68BB60BB6823F07703BB60FC
:10298C00BB6823F47F43BB607B681B68BA689A60A2
:10299C003B681B68B3F5005F3ED0B3F5005F00F2F7
:1029AC008780B3F5805F00F08680B3F5805F7FD8B9
:1029BC00702B1AD0702B7BD8602B50D0602B77D813
:1029CC00502B3CD0502B73D8402B58D0402B6FD869
:1029DC00302B64D0302B6BD8202B60D0202B67D8B9
:1029EC00002B5CD0102B5AD062E07B6818683B68D7
:1029FC0099683B685A683B68DB6800F06AF97B6849
:102A0C001B689B68BB60BB6843F07703BB607B684B
:102A1C001B68BA689A604FE07B6818683B689968D5
:102A2C003B685A683B68DB6800F053F97B681B68AD
:102A3C009A687B681B6842F480429A603CE07B6831
:102A4C0018683B6859683B68DB681A4600F0CAF89E
:102A5C007B681B685021184600F021F92CE07B683C
:102A6C0018683B6859683B68DB681A4600F0E8F860
:102A7C007B681B686021184600F011F91CE07B682C
:102A8C0018683B6859683B68DB681A4600F0AAF87E
:102A9C007B681B684021184600F001F90CE07B684C
:102AAC001A683B681B681946104600F0F8F803E0FA
:102ABC000123FB7300E000BF7B68012283F83D20FB
:102ACC007B68002283F83C20FB7B18461037BD4600
:102ADC0080BD80B483B000AF786000BF0C37BD46BA
:102AEC0080BC704780B483B000AF786000BF0C37F7
:102AFC00BD4680BC704780B483B000AF786000BF27
:102B0C000C37BD4680BC704780B483B000AF786092
:102B1C0000BF0C37BD4680BC7047000080B485B048
:102B2C0000AF786039607B681B68FB607B682B4A60
:102B3C00934207D07B68B3F1804F03D07B68284A5F
:102B4C00934208D1FB6823F07003FB603B685B6821
:102B5C00FA681343FB607B68204A934207D07B687A
:102B6C00B3F1804F03D07B681D4A934208D1FB68B8
:102B7C0023F44073FB603B68DB68FA681343FB602B
:102B8C00FB6823F080023B685B691343FB607B6846
:102B9C00FA681A603B689A687B68DA623B681A6864
:102BAC007B689A627B680D4A934203D13B681A6931
:102BBC007B681A637B6801225A617B681B6903F08E
:102BCC000103002B05D07B681B6923F001027B6895
:102BDC001A6100BF1437BD4680BC7047002C014001
:102BEC000004004080B487B000AFF860B9607A6030
:102BFC00FB681B6A7B61FB681B6A23F00102FB68A4
:102C0C001A62FB689B693B613B6923F0F0033B61F3
:102C1C007B681B013A6913433B617B6923F00A0310
:102C2C007B617A69BB6813437B61FB683A699A6183
:102C3C00FB687A691A6200BF1C37BD4680BC7047BE
:102C4C0080B487B000AFF860B9607A60FB681B6A2B
:102C5C007B61FB681B6A23F01002FB681A62FB683D
:102C6C009B693B613B6923F470433B617B681B03AD
:102C7C003A6913433B617B6923F0A0037B61BB681A
:102C8C001B017A6913437B61FB683A699A61FB68A3
:102C9C007A691A6200BF1C37BD4680BC704780B48D
:102CAC0085B000AF786039607B689B68FB60FB681F
:102CBC0023F07003FB603A68FB68134343F007038F
:102CCC00FB607B68FA689A6000BF1437BD4680BC15
:102CDC00704780B487B000AFF860B9607A603B6031
:102CEC00FB689B687B617B6923F47F437B613B685A
:102CFC001A027B681A43BB6813437A6913437B61DE
:102D0C00FB687A699A6000BF1C37BD4680BC70476F
:102D1C0080B485B000AF786039607B6893F83C3044
:102D2C00012B01D1022341E07B68012283F83C2076
:102D3C007B68022283F83D207B681B685B68FB6024
:102D4C007B681B689B68BB60FB6823F07003FB60AF
:102D5C003B681B68FA681343FB607B681B68FA6866
:102D6C005A607B681B68144A934209D07B681B68C5
:102D7C00B3F1804F04D07B681B68104A93420CD18E
:102D8C00BB6823F08003BB603B685B68BA68134385
:102D9C00BB607B681B68BA689A607B68012283F809
:102DAC003D207B68002283F83C2000231846143712
:102DBC00BD4680BC704700BF002C014000040040A1
:102DCC0080B483B000AF786000BF0C37BD4680BCC8
:102DDC00704780B483B000AF786000BF0C37BD463D
:102DEC0080BC704770B500260C4D0D4C641BA410B4
:102DFC00A64209D100F022F800260A4D0A4C641BA9
:102E0C00A410A64205D170BD55F8043B9847013675
:102E1C00EEE755F8043B98470136F2E7842E00089C
:102E2C00842E0008842E0008882E000803460244D5
:102E3C00934200D1704703F8011BF9E7F8B500BFC6
:102E4C00F8BC08BC9E467047F8B500BFF8BC08BC7F
:042E5C009E467047D7
:102E6000000000000000000001020304060708093A
:102E700002030405060708090A0B0C0D0E0F1010BB
:042E8000010200004B
:042E84003101000810
:042E88000D01000830
:102E8C000008014000080140000801400008001043
:102E9C00002000000A00000000127A001000000060
:042EAC000100000021
:04000005080017BD1B
:00000001FF
