:020000040800F2
:1000000000280020A1170008A90D0008AF0D000866
:10001000B50D0008BB0D0008C10D00080000000070
:10002000000000000000000000000000C70D0008F4
:10003000D30D000800000000DF0D0008EB0D0008E4
:10004000E9170008E9170008E9170008E917000890
:10005000E9170008E9170008E9170008E917000880
:10006000E9170008E9170008E9170008E917000870
:10007000E9170008E9170008E9170008E917000860
:10008000E9170008E9170008E9170008E917000850
:10009000E9170008E9170008E9170008E917000840
:1000A000E9170008E9170008E9170008E917000830
:1000B000F90D0008E917000800000000E917000822
:1000C000E91700080000000000000000E917000820
:1000D00000000000E9170008E91700080000000010
:1000E000E9170008E9170008E917000800000000F8
:1000F0000000000000000000000000000000000000
:0C01000000000000000000005FF808F1A3
:10010C0010B5054C237833B9044B13B10448AFF345
:10011C0000800123237010BD24000020000000008B
:10012C002C2E000808B5034B1BB103490348AFF351
:10013C00008008BD00000000280000202C2E0008C4
:10014C0090B583B000AF0023FB716BE0FA79FB79BB
:10015C003849895C384AD154FA79FB793749895C3A
:10016C00344AD154FB79364A52F82320FB7935496D
:10017C0031F81330FC791946104601F01BFE03468A
:10018C001A462E4B1A55FB792B4AD25CFB7929491E
:10019C00CB5C9A423DD1FB79264AD25CFB7927494C
:1001AC00CB5C9A4235D1FB79244AD25CFB79264947
:1001BC00CB5C9A4214D0FA79FB792049895C224AAB
:1001CC00D154FB791D4AD35C002B27D1FB791F4AF4
:1001DC000121D154FB791E4A642122F813101DE031
:1001EC00FB79194AD35C002B18D1FB79184A32F8E9
:1001FC001320013A91B2164A22F81310FB79144AD3
:10020C0032F81330002B09D1FB79124A0121D15459
:10021C0004E0FB790F4A0021D15400E000BFFB79C8
:10022C000133FB71FB79022B90D900BF00BF0C3757
:10023C00BD4690BD44000020400000204800002036
:10024C00000000200C0000204C000020500000207A
:10025C00580000205400002080B483B000AF034647
:10026C00FB71FB79022B01D900230BE0FB79084AC7
:10027C00D35C012B05D1FB79054A0021D154012314
:10028C0000E0002318460C37BD4680BC704700BF09
:10029C005000002080B483B000AF0346FB71FB79A3
:1002AC00022B01D9002302E0FB79034AD35C1846E8
:1002BC000C37BD4680BC70475400002080B582B01E
:1002CC0000AF03460A46FB711346BB714FF47A71BB
:1002DC00002000F0A3FCFB790749BA79CA54064BFD
:1002EC001B78054A52781146184600F0C1F800BF39
:1002FC000837BD4680BD00BF7000002080B500AF40
:10030C00002000F07BFC0346002B20D0114B1B7807
:10031C00002B1CD00F4B5B78002B18D04FF47A714C
:10032C00002000F07BFC0B4B1B78013BDAB2094B35
:10033C001A70084B5B78013BDAB2064B5A70054BCE
:10034C001B78044A52781146184600F091F800BF09
:10035C0080BD00BF7000002080B582B000AF0346A6
:10036C00FB71FB79002B1AD12E4B1B780133DAB2BF
:10037C002C4B1A702B4B1B78632B07D92A4B1A78F2
:10038C002A4B1B781344DAB2264B1A70254B1B7878
:10039C00244A12781146184600F06AF83EE0FB79C0
:1003AC00012B1CD1214B1B780133DAB21F4B1A7075
:1003BC001E4B1A781B4B1B789A4207D3194B1A7891
:1003CC00194B1B78D31ADAB2184B1A70174B1B78CF
:1003DC00164A12781146184600F04AF81EE0FB79CE
:1003EC00022B1BD1104B1B780133DAB20E4B1A7057
:1003FC000D4B1A780B4B1B789A4207D3094B1A7882
:10040C000A4B1B78D31ADAB2074B1A70064B1B78BF
:10041C00054A12781146184600F02AF800BF083732
:10042C00BD4680BD720000206C0000206D000020D5
:10043C0080B500AF012000F0E1FB0346002B13D088
:10044C006421012000F0EAFB084B1B78032B02D936
:10045C00064B00221A70054B1B785A1CD1B2034A6A
:10046C001170184600F040F800BF80BD5E000020FF
:10047C0080B483B000AF03460A46FB711346BB71D0
:10048C00FB79174AA2FB0323DB08DAB2154B1A706F
:10049C00FA79134BA3FB0213D9080B469B000B44B0
:1004AC005B00D31ADAB20F4B5A70BB790C4AA2FB21
:1004BC000323DB08DAB20B4B9A70BA79084BA3FB17
:1004CC000213D9080B469B000B445B00D31ADAB21B
:1004DC00044BDA7000BF0C37BD4680BC704700BFC0
:1004EC00CDCCCCCC7400002080B582B000AF0346DC
:1004FC00FB71FB79032B73D801A252F823F000BFD8
:10050C001D0500085105000885050008B9050008FF
:10051C00002202213F4801F064FC012204213D48E5
:10052C0001F05FFC012208213A4801F05AFC01223B
:10053C001021384801F055FC374B1B78184600F059
:10054C006DF862E001220221324801F04AFC0022DF
:10055C000421304801F045FC012208212D4801F00E
:10056C0040FC012210212B4801F03BFC2A4B5B780C
:10057C00184600F053F848E001220221254801F00A
:10058C0030FC01220421234801F02BFC002208211D
:10059C00204801F026FC012210211E4801F021FC0C
:1005AC001D4B9B78184600F039F82EE001220221F1
:1005BC00184801F016FC01220421164801F011FC28
:1005CC0001220821134801F00CFC002210211148D3
:1005DC0001F007FC104BDB78184600F01FF814E014
:1005EC00012202210B4801F0FCFB012204210948E5
:1005FC0001F0F7FB01220821064801F0F2FB012271
:10060C001021044801F0EDFB00BF00BF0837BD46C8
:10061C0080BD00BF000801407400002080B582B08E
:10062C0000AF0346FB71FB79092B00F27F8101A21D
:10063C0052F823F069060008B1060008F906000814
:10064C004107000889070008D107000819080008AD
:10065C0061080008A9080008F1080008002201211F
:10066C00C64801F0BEFB00220221C44801F0B9FBD0
:10067C0000220421C14801F0B4FB00220821BF482C
:10068C0001F0AFFB00221021BC4801F0AAFB0022B4
:10069C002021BA4801F0A5FB01224021B74801F006
:1006AC00A0FB67E101220121B44801F09AFB002272
:1006BC000221B24801F095FB00220421AF4801F061
:1006CC0090FB01220821AD4801F08BFB0122102187
:1006DC00AA4801F086FB01222021A84801F081FBE9
:1006EC0001224021A54801F07CFB43E100220121BD
:1006FC00A24801F076FB00220221A04801F071FB18
:10070C00012204219D4801F06CFB002208219B482A
:10071C0001F067FB00221021984801F062FB0122D6
:10072C002021964801F05DFB00224021934801F006
:10073C0058FB1FE100220121904801F052FB0022DE
:10074C0002218E4801F04DFB002204218B4801F060
:10075C0048FB00220821894801F043FB01221021AB
:10076C00864801F03EFB01222021844801F039FB30
:10077C0000224021814801F034FBFBE001220121E1
:10078C007E4801F02EFB002202217C4801F029FB5F
:10079C0000220421794801F024FB0122082177482A
:1007AC0001F01FFB01221021744801F01AFB0022FA
:1007BC002021724801F015FB002240216F4801F006
:1007CC0010FBD7E0002201216C4801F00AFB01224A
:1007DC0002216A4801F005FB00220421674801F060
:1007EC0000FB00220821654801F0FBFA01221021D0
:1007FC00624801F0F6FA00222021604801F0F1FA7B
:10080C00002240215D4801F0ECFAB3E00022012106
:10081C005A4801F0E6FA01220221584801F0E1FAA7
:10082C0000220421554801F0DCFA0022082153482B
:10083C0001F0D7FA00221021504801F0D2FA002220
:10084C0020214E4801F0CDFA002240214B4801F006
:10085C00C8FA8FE000220121484801F0C2FA0022B8
:10086C000221464801F0BDFA00220421434801F060
:10087C00B8FA01220821414801F0B3FA01221021F3
:10088C003E4801F0AEFA012220213C4801F0A9FAC1
:10089C0001224021394801F0A4FA6BE00022012129
:1008AC00364801F09EFA00220221344801F099FAF0
:1008BC0000220421314801F094FA002208212F482B
:1008CC0001F08FFA002210212C4801F08AFA002244
:1008DC0020212A4801F085FA00224021274801F006
:1008EC0080FA47E000220121244801F07AFA002224
:1008FC000221224801F075FA002204211F4801F060
:10090C0070FA002208211D4801F06BFA0122102117
:10091C001A4801F066FA00222021184801F061FA09
:10092C0000224021154801F05CFA23E0012201214C
:10093C00124801F056FA01220221104801F051FA36
:10094C00012204210D4801F04CFA012208210B4828
:10095C0001F047FA01221021084801F042FA012265
:10096C002021064801F03DFA01224021034801F004
:10097C0038FA00BF00BF0837BD4680BD000C0140EF
:10098C0080B500AF00F02CFF00F034F800F0C2F896
:10099C0000F06CF8134801F08BFE4FF4FA61002064
:1009AC0000F03CF94FF47A71012000F037F94FF464
:1009BC007A71022000F032F90B4B05221A700B4BA6
:1009CC0002221A700A4B03221A7000F007FC00F086
:1009DC001DFA00F021FB00F0FDFDFFF729FDFFF7EC
:1009EC008DFCF2E77C000020720000206D000020DE
:1009FC006C00002080B590B000AF07F118032822DE
:100A0C000021184602F004FA3B1D00221A605A60BD
:100A1C009A60DA601A610223BB610123BB62102366
:100A2C00FB6200237B6307F11803184601F00AFAF6
:100A3C000346002B01D000F0DBF80F237B60002372
:100A4C00BB600023FB6000233B6100237B613B1DEB
:100A5C000021184601F076FC0346002B01D000F073
:100A6C00C7F800BF4037BD4680BD000080B586B0DA
:100A7C0000AF07F1080300221A605A609A60DA602E
:100A8C003B4600221A605A60214B4FF080421A609C
:100A9C001F4B41F63F725A601D4B00229A601C4B53
:100AAC000922DA601A4B00221A61194B00229A6152
:100ABC00174801F0ADFD0346002B01D000F098F86B
:100ACC004FF48053BB6007F108031946104801F03E
:100ADC002BFF0346002B01D000F08AF800233B606B
:100AEC0000237B603B461946094802F003F9034694
:100AFC00002B01D000F07CF8054B5B68044AD268EF
:100B0C001146184600F0A2F800BF1837BD4680BD4C
:100B1C007C00002080B586B000AF07F108030022EE
:100B2C001A605A609A60DA60284B9B69274A43F036
:100B3C0004039361254B9B6903F004037B607B6882
:100B4C00224B9B69214A43F0080393611F4B9B691D
:100B5C0003F008033B603B68002240F2FE711C4826
:100B6C0001F03FF900227F211A4801F03AF940F2D6
:100B7C00FE73BB600123FB6000233B6102237B619E
:100B8C0007F108031946124800F09AFF7F23BB6057
:100B9C000123FB6000233B6102237B6107F1080307
:100BAC0019460C4800F08CFF4FF46053BB600023D7
:100BBC00FB6001233B6107F108031946044800F070
:100BCC007FFF00BF1837BD4680BD00BF001002403C
:100BDC0000080140000C014080B582B000AF786085
:100BEC0000F052F8FFF7ACFA00BF0837BD4680BDE5
:100BFC0080B400AF72B600BFFEE7000080B483B0D3
:100C0C0000AF0346FB71FB79034AD35C18460C37E3
:100C1C00BD4680BC704700BF6800002080B483B024
:100C2C0000AF03463960FB71FB79064A0021D154B1
:100C3C00FB7905493A6841F8232000BF0C37BD46C3
:100C4C0080BC7047680000206000002080B584B034
:100C5C0000AF7860396001F0B3FCF8607B68013359
:100C6C003A68013202FB03F34FF47A7202FB03F28F
:100C7C00FB68B2FBF3F3034A136000BF1037BD46A9
:100C8C0080BD00BF1400002080B483B000AF0023EF
:100C9C00FB711DE0FB79134A52F82330002B14D062
:100CAC00FB79104A52F823100F4B1A68FB798A1AF9
:100CBC000C4941F82320FB790A4A52F82330002BC7
:100CCC0003D1FB79094A0121D154FB790133FB7122
:100CDC00FB79012BDED900BF00BF0C37BD4680BCB1
:100CEC00704700BF60000020140000206800002046
:100CFC0080B485B000AF154B9B69144A43F00103D7
:100D0C009361124B9B6903F00103BB60BB680F4BF3
:100D1C00DB690E4A43F08053D3610C4BDB6903F063
:100D2C0080537B607B680A4B5B68FB60FB6823F03D
:100D3C00E063FB60FB6843F08063FB60044AFB6884
:100D4C00536000BF1437BD4680BC70470010024092
:100D5C000000014080B584B000AF78607B681B68F0
:100D6C00B3F1804F13D10C4BDB690B4A43F00103F9
:100D7C00D361094BDB6903F00103FB60FB680022C4
:100D8C0000211C2000F065FE1C2000F07EFE00BF40
:100D9C001037BD4680BD00BF0010024080B400AFCC
:100DAC00FEE780B400AFFEE780B400AFFEE780B48E
:100DBC0000AFFEE780B400AFFEE780B400AF00BF29
:100DCC00BD4680BC704780B400AF00BFBD4680BC40
:100DDC00704780B400AF00BFBD4680BC704780B583
:100DEC0000AF00F043FD00BF80BD000080B500AF38
:100DFC00024801F0A9FC00BF80BD00BF7C000020B0
:100E0C0080B400AF00BFBD4680BC704780B500AF5A
:100E1C007B4B1B78063B032B00F2E78001A252F8B8
:100E2C0023F000BF410E0008B50E0008270F000884
:100E3C00850F000800222021724800F0D2FF012209
:100E4C004021704800F0CDFF012280216D4800F058
:100E5C00C8FF01224FF480716A4800F0C2FF0122E2
:100E6C004FF40071674800F0BCFF00224FF4806122
:100E7C00644800F0B6FF644B5B78002B09D1604BE3
:100E8C0007221A70614B1B7819460120FFF716FADE
:100E9C00ADE00020FFF7E0F90346002B00F0A7803F
:100EAC00574B00221A70A2E000222021554800F076
:100EBC0098FF01224021534800F093FF012280212A
:100ECC00504800F08EFF01224FF480714D4800F025
:100EDC0088FF00224FF400714A4800F082FF012283
:100EEC004FF48061474800F07CFF474B5B78002B48
:100EFC0003D0454B1B78002B7BD1414B08221A7039
:100F0C00434B1B7819460020FFF7D8F9414B1B784F
:100F1C0019460120FFF7D2F96BE001222021394854
:100F2C0000F05FFF01224021364800F05AFF0022FA
:100F3C008021344800F055FF00224FF48071314875
:100F4C0000F04FFF01224FF400712E4800F049FFD2
:100F5C0001224FF480612B4800F043FF2A4B1B7891
:100F6C00002B48D1264B09221A70284B1B781946A6
:100F7C000020FFF7A3F93EE001222021214800F0D8
:100F8C0030FF002240211F4800F02BFF012280215E
:100F9C001C4800F026FF00224FF48071194800F025
:100FAC0020FF01224FF40071164800F01AFF0122B5
:100FBC004FF48061134800F014FF134B1B78002B87
:100FCC0003D0114B5B78002B17D10D4B06221A70F6
:100FDC00104B1B7819460020FFF770F90C4B1B784F
:100FEC0019460120FFF76AF907E000BF06E000BFD1
:100FFC0004E000BF02E000BF00E000BF00BF80BD06
:10100C007800002000080140700000206D000020D6
:10101C006C0000207200002080B500AF6D4B1B7877
:10102C000B3B032B00F2CA8001A252F823F000BF45
:10103C004D100008D7100008191100088D11000878
:10104C0000222021644800F0CCFE0122402162489D
:10105C0000F0C7FE012280215F4800F0C2FE012291
:10106C004FF480715C4800F0BCFE01224FF400711B
:10107C00594800F0B6FE00224FF48061564800F04B
:10108C00B0FE0020FFF7BAFD0346002B03D0514BF6
:10109C0000221A7094E00020FFF7DEF80346002BC4
:1010AC0003D04C4B02221A708AE00120FFF7D4F8CF
:1010BC000346002B00F08480464B0C221A704FF430
:1010CC00FA610020FFF7AAFD7AE001224FF480714B
:1010DC00414800F086FE00224FF400713E4800F0BB
:1010EC0080FE01224FF480613B4800F07AFE002024
:1010FC00FFF784FD0346002B64D0364B0D221A708B
:10110C0042F210710020FFF789FD5BE001222021E3
:10111C00314800F066FE012240212F4800F061FEAC
:10112C00002280212C4800F05CFE00224FF48071DC
:10113C00294800F056FE01224FF40071264800F0B9
:10114C0050FE01224FF48061234800F04AFE00203B
:10115C00FFF754FD0346002B03D01E4B00221A70E0
:10116C0032E00120FFF778F80346002B2CD0194B06
:10117C000E221A704FF4FA610020FFF74FFD23E0A6
:10118C0001222021144800F02CFE0022402112489C
:10119C0000F027FE012280210F4800F022FE0020E3
:1011AC00FFF72CFD0346002B10D00A4B0B221A70B4
:1011BC0042F210710020FFF731FD07E000BF06E09E
:1011CC0000BF04E000BF02E000BF00E000BF00BFB2
:1011DC0080BD00BF780000200008014080B500AF42
:1011EC00BF4B1B78052B00F2E18101A252F823F0D2
:1011FC001512000837120008D712000879130008DE
:10120C003314000801150008B54B01221A70002197
:10121C000020FFF753F800210120FFF74FF841F2AF
:10122C0088310020FFF7FAFCCBE10120FFF7F6F93B
:10123C0000222021AB4800F0D4FD00224021A94817
:10124C0000F0CFFD00228021A64800F0CAFD00224C
:10125C004FF48071A34800F0C4FD00224FF40071DC
:10126C00A04800F0BEFD00224FF480619D4800F0C4
:10127C00B8FD0020FFF7C2FC0346002B05D102206D
:10128C00FEF7EAFF0346002B0FD0954B06221A708F
:10129C00954B1B7819460020FFF710F8934B1B78E1
:1012AC0019460120FFF70AF882E10020FEF7D4FF6F
:1012BC000346002B00F07C81894B02221A7041F20C
:1012CC0088310020FFF7AAFC72E10220FFF7A6F993
:1012DC000220FFF793FC0346002B1FD04FF4FA714A
:1012EC000220FFF79BFC20217E4800F092FD40215C
:1012FC007C4800F08EFD80217A4800F08AFD4FF486
:10130C008071784800F085FD4FF40071754800F04D
:10131C0080FD4FF48061734800F07BFD0020FFF7E7
:10132C006DFC0346002B02D06D4B00221A7002207C
:10133C00FEF792FF0346002B08D0694B0B221A7064
:10134C0042F210710020FFF769FC33E10020FEF738
:10135C0083FF0346002B00F02D81614B03221A7092
:10136C0041F288310020FFF759FC23E10320FFF7FD
:10137C0055F9012240215B4800F033FD0122802108
:10138C00584800F02EFD01224FF40071554800F032
:10139C0028FD01224FF48061524800F022FD02200A
:1013AC00FFF72CFC0346002B0DD04FF4FA710220F2
:1013BC00FFF734FC20214B4800F02BFD4FF48071DB
:1013CC00484800F026FD0020FFF718FC0346002BD0
:1013DC0002D0434B00221A700220FEF73DFF034659
:1013EC00002B10D03E4B14221A7044F620610020C2
:1013FC00FFF714FC3C4B1B783B4A127811461846FD
:10140C00FFF736F8D8E00020FEF726FF0346002B46
:10141C0000F0D280324B04221A7041F28831002045
:10142C00FFF7FCFBC8E00420FFF7F8F801222021AD
:10143C002C4800F0D6FC012280212A4800F0D1FC77
:10144C0001224FF48071274800F0CBFC01224FF4AD
:10145C008061244800F0C5FC0220FFF7CFFB034657
:10146C00002B0DD04FF4FA710220FFF7D7FB40216F
:10147C001C4800F0CEFC4FF400711A4800F0C9FC77
:10148C000020FFF7BBFB0346002B02D0144B0022BD
:10149C001A700220FEF7E0FE0346002B10D0104B12
:1014AC0015221A7044F620610020FFF7B7FB104B91
:1014BC001B780F4A127811461846FEF7D9FF7DE0CB
:1014CC000020FEF7C9FE0346002B77D0044B052203
:1014DC001A7041F288310020FFF7A0FB6EE000BFCC
:1014EC007800002000080140720000206C000020F1
:1014FC006D0000200520FFF791F8012220213248D1
:10150C0000F06FFC012240212F4800F06AFC012200
:10151C004FF480712C4800F064FC01224FF40071F0
:10152C00294800F05EFC0220FFF768FB0346002B05
:10153C000DD04FF4FA710220FFF770FB8021224886
:10154C0000F067FC4FF480611F4800F062FC002043
:10155C00FFF754FB0346002B02D01C4B00221A70E1
:10156C000220FEF779FE0346002B10D0174B1622F3
:10157C001A7044F620610020FFF750FB144B1B78C7
:10158C00134A127811461846FEF772FF18E0002035
:10159C00FEF762FE0346002B12D00C4B01221A7090
:1015AC0041F288310020FFF739FB09E000BF08E069
:1015BC0000BF06E000BF04E000BF02E000BF00E097
:1015CC0000BF00BF80BD00BF0008014078000020B4
:1015DC006C00002080B500AF694B1B78162B00F017
:1015EC008780162B00F3C380142B02D0152B40D010
:1015FC00BDE001222021634800F0F3FB0120FEF73F
:10160C002BFE0346002B07D00020FEF7A5FE44F668
:10161C0020610020FFF702FB0120FEF73BFE034692
:10162C00002B0DD00220FFF7E9FA0346002B07D060
:10163C004FF4FA710220FFF7F1FA0020FEF78CFE4E
:10164C000220FEF709FE0346002B06D10020FFF70F
:10165C00D5FA0346002B00F08C804B4B1A784B4B81
:10166C001B78D31ADAB24A4B1A70454B00221A7007
:10167C007FE001224021434800F0B3FB0120FEF73C
:10168C00EBFD0346002B07D00120FEF765FE44F668
:10169C0020610020FFF7C2FA0120FEF7FBFD034694
:1016AC00002B0DD00220FFF7A9FA0346002B07D020
:1016BC004FF4FA710220FFF7B1FA0120FEF74CFE4D
:1016CC000220FEF7C9FD0346002B05D10020FFF7D1
:1016DC0095FA0346002B4ED02B4B1A782B4B1B78CC
:1016EC00D31ADAB22A4B1A70254B00221A7042E038
:1016FC0001228021234800F074FB0120FEF7ACFD91
:10170C000346002B07D00220FEF726FE44F620618C
:10171C000020FFF783FA0120FEF7BCFD0346002BE7
:10172C000DD00220FFF76AFA0346002B07D04FF4C6
:10173C00FA710220FFF772FA0220FEF70DFE02206A
:10174C00FEF78AFD0346002B05D10020FFF756FA61
:10175C000346002B11D00C4B1A780D4B1B78D31A67
:10176C00DAB20A4B1A70064B00221A7005E000BF61
:10177C0004E000BF02E000BF00E000BF00BF80BD7E
:10178C007800002000080140720000206D0000204D
:10179C006C000020FFF734FB0B480C490C4A00236B
:1017AC0002E0D458C4500433C4188C42F9D3094A0B
:1017BC00094C002301E013600432A242FBD301F078
:1017CC0003FBFFF7DDF87047000000202400002029
:1017DC00702E000824000020C8000020FEE7000046
:1017EC0080B500AF084B1B68074A43F01003136029
:1017FC00032000F023F90F2000F008F8FFF778FA27
:10180C000023184680BD00BF0020024080B582B086
:10181C0000AF7860124B1A68124B1B7819464FF4C4
:10182C007A73B3FBF1F3B2FBF3F3184600F03BF918
:10183C000346002B01D001230EE07B680F2B0AD846
:10184C00002279684FF0FF3000F003F9064A7B68FC
:10185C001360002300E0012318460837BD4680BD05
:10186C0018000020200000201C00002080B400AFD5
:10187C00054B1B781A46054B1B681344034A13602F
:10188C0000BFBD4680BC704720000020C400002073
:10189C0080B400AF024B1B681846BD4680BC704735
:1018AC00C400002080B485B000AF78607B6803F082
:1018BC000703FB600C4BDB68BB60BA684FF6FF0399
:1018CC001340BB60FB681A02BB68134343F0BF6351
:1018DC0043F40033BB60044ABB68D36000BF1437C9
:1018EC00BD4680BC704700BF00ED00E080B400AF87
:1018FC00044BDB681B0A03F007031846BD4680BC8B
:10190C00704700BF00ED00E080B483B000AF034629
:10191C00FB7197F90730002B0BDBFB7903F01F02EF
:10192C00064997F907305B09012000FA02F241F8E9
:10193C00232000BF0C37BD4680BC704700E100E09F
:10194C0080B483B000AF03463960FB7197F9073060
:10195C00002B0ADB3B68DAB20C4997F9073012010D
:10196C00D2B20B4483F800230AE03B68DAB2084990
:10197C00FB7903F00F03043B1201D2B20B441A762D
:10198C0000BF0C37BD4680BC704700BF00E100E0D3
:10199C0000ED00E080B489B000AFF860B9607A6007
:1019AC00FB6803F00703FB61FB69C3F10703042B1E
:1019BC0028BF0423BB61FB690433062B02D9FB69E6
:1019CC00033B00E000237B614FF0FF32BB6902FA5E
:1019DC0003F3DA43BB681A407B699A404FF0FF313E
:1019EC007B6901FA03F3D9437B680B401343184618
:1019FC002437BD4680BC704780B582B000AF78609C
:101A0C007B68013BB3F1807F01D301230FE00A4ACD
:101A1C007B68013B53600F214FF0FF30FFF790FFC5
:101A2C00054B00229A60044B07221A6000231846CB
:101A3C000837BD4680BD00BF10E000E080B582B025
:101A4C0000AF78607868FFF72DFF00BF0837BD4600
:101A5C0080BD80B586B000AF0346B9607A60FB7379
:101A6C0000237B61FFF742FF78617A68B968786977
:101A7C00FFF790FF024697F90F3011461846FFF713
:101A8C005FFF00BF1837BD4680BD80B582B000AF88
:101A9C000346FB7197F907301846FFF735FF00BF77
:101AAC000837BD4680BD80B582B000AF78607868DD
:101ABC00FFF7A2FF034618460837BD4680BD00005D
:101ACC0080B48BB000AF7860396000237B62002358
:101ADC003B6248E101227B6A02FA03F3FB613B683B
:101AEC001B68FA691340BB61BA69FB699A4240F002
:101AFC0037813B685B68A34A93425ED0A14A93420C
:101B0C0075D8A14A934258D09F4A93426FD89F4AA6
:101B1C00934252D09D4A934269D89D4A93424CD0ED
:101B2C009B4A934263D89B4A934246D0994A93422C
:101B3C005DD8122B2AD8122B59D801A252F823F0B7
:101B4C00C71B0008A11B0008B31B0008F51B0008ED
:101B5C00FB1B0008FB1B0008FB1B0008FB1B000801
:101B6C00FB1B0008FB1B0008FB1B0008FB1B0008F1
:101B7C00FB1B0008FB1B0008FB1B0008FB1B0008E1
:101B8C00FB1B0008A91B0008BD1B0008824A9342DE
:101B9C0013D02CE03B68DB683B6229E03B68DB68D8
:101BAC0004333B6224E03B68DB6808333B621FE094
:101BBC003B68DB680C333B621AE03B689B68002B8C
:101BCC0002D104233B6213E03B689B68012B05D1D7
:101BDC0008233B627B68FA691A6109E008233B62BF
:101BEC007B68FA695A6103E000233B6200E000BFA6
:101BFC00BB69FF2B01D87B6801E07B6804337B61F8
:101C0C00BB69FF2B02D87B6A9B0002E07B6A083B16
:101C1C009B003B617B691A680F213B6901FA03F356
:101C2C00DB431A40396A3B6901FA03F31A437B69B7
:101C3C001A603B685B6803F08053002B00F09080C7
:101C4C00564B9B69554A43F001039361534B9B6977
:101C5C0003F00103BB60BB68514A7B6A9B080233EB
:101C6C0052F82330FB607B6A03F003039B000F22C6
:101C7C0002FA03F3DB43FA681340FB607B68494AC2
:101C8C0093420DD07B68484A934207D07B68474A01
:101C9C00934201D1022304E0032302E0012300E07C
:101CAC0000237A6A02F0030292009340FA6813430D
:101CBC00FB603B497B6A9B080233FA6841F823209E
:101CCC003B685B6803F48013002B06D0384B9A6892
:101CDC003749BB6913438B6006E0354B9A68BB6987
:101CEC00DB43334913408B603B685B6803F40013A0
:101CFC00002B06D02E4BDA682D49BB691343CB6001
:101D0C0006E02B4BDA68BB69DB4329491340CB60F7
:101D1C003B685B6803F40033002B06D0244B5A68F5
:101D2C002349BB6913434B6006E0214B5A68BB69DE
:101D3C00DB431F4913404B603B685B6803F4803303
:101D4C00002B06D01A4B1A681949BB6913430B6058
:101D5C0006E0174B1A68BB69DB43154913400B604F
:101D6C007B6A01337B623B681A687B6A22FA03F355
:101D7C00002B7FF4AFAE00BF00BF2C37BD4680BC3C
:101D8C00704700BF0000321000003110000022101C
:101D9C000000211000001210000011100010024071
:101DAC000000014000080140000C014000100140FF
:101DBC000004014080B485B000AF78600B467B8096
:101DCC007B689A687B881340002B02D00123FB733D
:101DDC0001E00023FB73FB7B18461437BD4680BC27
:101DEC00704780B483B000AF78600B467B8013469D
:101DFC007B707B78002B03D07A887B681A6103E0B8
:101E0C007B881A047B681A6100BF0C37BD4680BC06
:101E1C00704780B485B000AF78600B467B807B68E0
:101E2C00DB68FB607A88FB6813401A04FB68D943B3
:101E3C007B880B401A437B681A6100BF1437BD4680
:101E4C0080BC704780B586B000AF78607B68002B93
:101E5C0001D101236CE27B681B6803F00103002BAA
:101E6C0000F08780924B5B6803F00C03042B0CD0C2
:101E7C008F4B5B6803F00C03082B12D18C4B5B6807
:101E8C0003F48033B3F5803F0BD1894B1B6803F40B
:101E9C000033002B6CD07B685B68002B68D101236E
:101EAC0046E27B685B68B3F5803F06D1804B1B68CC
:101EBC007F4A43F4803313602EE07B685B68002B11
:101ECC000CD17B4B1B687A4A23F480331360784B1C
:101EDC001B68774A23F4802313601DE07B685B68E2
:101EEC00B3F5A02F0CD1724B1B68714A43F48023BD
:101EFC0013606F4B1B686E4A43F4803313600BE026
:101F0C006B4B1B686A4A23F480331360684B1B6865
:101F1C00674A23F4802313607B685B68002B13D023
:101F2C00FFF7B6FC386108E0FFF7B2FC02463B69EC
:101F3C00D31A642B01D90323FAE15D4B1B6803F41C
:101F4C000033002BF0D014E0FFF7A2FC386108E05E
:101F5C00FFF79EFC02463B69D31A642B01D903237D
:101F6C00E6E1534B1B6803F40033002BF0D100E087
:101F7C0000BF7B681B6803F00203002B63D04C4B43
:101F8C005B6803F00C03002B0BD0494B5B6803F030
:101F9C000C03082B1CD1464B5B6803F48033002BDD
:101FAC0016D1434B1B6803F00203002B05D07B6852
:101FBC001B69012B01D00123BAE13D4B1B6823F0B7
:101FCC00F8027B685B69DB00394913430B603AE02C
:101FDC007B681B69002B20D0364B01221A60FFF75F
:101FEC0057FC386108E0FFF753FC02463B69D31AF3
:101FFC00022B01D903239BE12D4B1B6803F0020339
:10200C00002BF0D02A4B1B6823F0F8027B685B692D
:10201C00DB00274913430B6015E0264B00221A60A6
:10202C00FFF736FC386108E0FFF732FC02463B69EB
:10203C00D31A022B01D903237AE11D4B1B6803F041
:10204C000203002BF0D17B681B6803F00803002B04
:10205C003AD07B689B69002B19D0174B01221A6070
:10206C00FFF716FC386108E0FFF712FC02463B69EB
:10207C00D31A022B01D903235AE10D4B5B6A03F0EF
:10208C000203002BF0D0012000F0A4FA1CE00A4B54
:10209C0000221A60FFF7FCFB38610FE0FFF7F8FB3A
:1020AC0002463B69D31A022B08D9032340E100BF37
:1020BC000010024000004242800442429E4B5B6A88
:1020CC0003F00203002BE9D17B681B6803F00403C7
:1020DC00002B00F0A6800023FB75974BDB6903F007
:1020EC008053002B0DD1944BDB69934A43F0805302
:1020FC00D361914BDB6903F08053BB60BB68012358
:10210C00FB758E4B1B6803F48073002B18D18B4B23
:10211C001B688A4A43F480731360FFF7B9FB38617C
:10212C0008E0FFF7B5FB02463B69D31A642B01D9D3
:10213C000323FDE0814B1B6803F48073002BF0D06C
:10214C007B68DB68012B06D17B4B1B6A7A4A43F018
:10215C00010313622DE07B68DB68002B0CD1764BFE
:10216C001B6A754A23F001031362734B1B6A724A94
:10217C0023F0040313621CE07B68DB68052B0CD195
:10218C006D4B1B6A6C4A43F0040313626A4B1B6A67
:10219C00694A43F0010313620BE0674B1B6A664A02
:1021AC0023F001031362644B1B6A634A23F004039C
:1021BC0013627B68DB68002B15D0FFF769FB386175
:1021CC000AE0FFF765FB02463B69D31A41F28832FD
:1021DC00934201D90323ABE0574B1B6A03F0020374
:1021EC00002BEED014E0FFF753FB38610AE0FFF749
:1021FC004FFB02463B69D31A41F28832934201D914
:10220C00032395E04C4B1B6A03F00203002BEED129
:10221C00FB7D012B05D1484BDB69474A23F08053EA
:10222C00D3617B68DB69002B00F08180424B5B68DB
:10223C0003F00C03082B61D07B68DB69022B46D1C1
:10224C003F4B00221A60FFF723FB386108E0FFF7D1
:10225C001FFB02463B69D31A022B01D9032367E00B
:10226C00354B1B6803F00073002BF0D17B681B6AA5
:10227C00B3F5803F08D1304B5B6823F400327B68A8
:10228C009B682D4913434B602B4B5B6823F47412F2
:10229C007B68196A7B685B6A0B43274913434B6065
:1022AC00274B01221A60FFF7F3FA386108E0FFF7B9
:1022BC00EFFA02463B69D31A022B01D9032337E00C
:1022CC001D4B1B6803F00073002BF0D02FE01C4B50
:1022DC0000221A60FFF7DCFA386108E0FFF7D8FA41
:1022EC0002463B69D31A022B01D9032320E0124B7F
:1022FC001B6803F00073002BF0D118E07B68DB69DE
:10230C00012B01D1012313E00B4B5B68FB60FB68D5
:10231C0003F480327B681B6A9A4206D1FB6803F493
:10232C0070127B685B6A9A4201D0012300E00023A3
:10233C0018461837BD4680BD0010024000700040A2
:10234C006000424280B584B000AF786039607B6831
:10235C00002B01D10123D0E06A4B1B6803F007036B
:10236C003A689A4210D9674B1B6823F007026549FB
:10237C003B6813430B60634B1B6803F007033A681D
:10238C009A4201D00123B8E07B681B6803F002037A
:10239C00002B20D07B681B6803F00403002B05D0B6
:1023AC00594B5B68584A43F4E06353607B681B6885
:1023BC0003F00803002B05D0534B5B68524A43F4DF
:1023CC0060535360504B5B6823F0F0027B689B6852
:1023DC004D4913434B607B681B6803F00103002BD2
:1023EC0040D07B685B68012B07D1474B1B6803F41B
:1023FC000033002B15D101237FE07B685B68022B37
:10240C0007D1414B1B6803F00073002B09D101234A
:10241C0073E03D4B1B6803F00203002B01D1012339
:10242C006BE0394B5B6823F003027B685B683649D1
:10243C0013434B60FFF72CFAF8600AE0FFF728FA19
:10244C000246FB68D31A41F28832934201D9032326
:10245C0053E02D4B5B6803F00C027B685B689B00C0
:10246C009A42EBD1274B1B6803F007033A689A4258
:10247C0010D2244B1B6823F0070222493B681343FC
:10248C000B60204B1B6803F007033A689A4201D09B
:10249C00012332E07B681B6803F00403002B08D097
:1024AC00194B5B6823F4E0627B68DB6816491343C5
:1024BC004B607B681B6803F00803002B09D0124BA0
:1024CC005B6823F460527B681B69DB000E49134385
:1024DC004B6000F021F802460B4B5B681B0903F0C4
:1024EC000F030A49CB5C22FA03F3094A1360094B28
:1024FC001B681846FFF78AF9002318461037BD46AB
:10250C0080BD00BF0020024000100240442E000895
:10251C00180000201C00002080B487B000AF0023FE
:10252C00FB600023BB6000237B6100237B600023E6
:10253C003B611E4B5B68FB60FB6803F00C03042BD8
:10254C0002D0082B03D027E0194B3B6127E0FB6836
:10255C009B0C03F00F03174AD35C7B60FB6803F4FE
:10256C008033002B10D0114B5B685B0C03F0010324
:10257C00114AD35CBB607B680D4A02FB03F2BB685B
:10258C00B2FBF3F37B6104E07B680C4A02FB03F3C0
:10259C007B617B693B6102E0054B3B6100BF3B69A2
:1025AC0018461C37BD4680BC704700BF0010024067
:1025BC0000127A00542E0008642E000800093D0019
:1025CC0080B400AF024B1B681846BD4680BC7047F8
:1025DC001800002080B485B000AF78600A4B1B68EF
:1025EC000A4AA2FB03235B0A7A6802FB03F3FB6033
:1025FC0000BFFB685A1EFA60002BF9D100BF00BF68
:10260C001437BD4680BC704718000020D34D6210B3
:10261C0080B582B000AF78607B68002B01D10123BC
:10262C0041E07B6893F83D30DBB2002B06D17B6830
:10263C00002283F83C207868FEF78CFB7B68022232
:10264C0083F83D207B681A687B6804331946104672
:10265C0000F056FA7B68012283F846207B68012241
:10266C0083F83E207B68012283F83F207B6801229F
:10267C0083F840207B68012283F841207B6801228B
:10268C0083F842207B68012283F843207B68012277
:10269C0083F844207B68012283F845207B68012263
:1026AC0083F83D20002318460837BD4680BD000046
:1026BC0080B485B000AF78607B6893F83D30DBB2B6
:1026CC00012B01D0012335E07B68022283F83D20E9
:1026DC007B681B68DA687B681B6842F00102DA6071
:1026EC007B681B68164A934209D07B681B68B3F160
:1026FC00804F04D07B681B68124A934211D17B68CF
:10270C001B689B6803F00703FB60FB68062B10D06B
:10271C007B681B681A687B681B6842F001021A60B0
:10272C0007E07B681B681A687B681B6842F0010233
:10273C001A60002318461437BD4680BC704700BF92
:10274C00002C01400004004080B584B000AF7860DC
:10275C007B681B68DB68FB607B681B681B69BB6064
:10276C00BB6803F00203002B20D0FB6803F00203CC
:10277C00002B1BD07B681B686FF002021A617B6810
:10278C0001221A777B681B689B6903F00303002BFB
:10279C0003D0786800F098F905E0786800F08BF9C0
:1027AC00786800F09AF97B6800221A77BB6803F00E
:1027BC000403002B20D0FB6803F00403002B1BD078
:1027CC007B681B686FF004021A617B6802221A771F
:1027DC007B681B689B6903F44073002B03D07868FB
:1027EC0000F072F905E0786800F065F9786800F09F
:1027FC0074F97B6800221A77BB6803F00803002B7E
:10280C0020D0FB6803F00803002B1BD07B681B68EF
:10281C006FF008021A617B6804221A777B681B68C8
:10282C00DB6903F00303002B03D0786800F04CF94C
:10283C0005E0786800F03FF9786800F04EF97B68A5
:10284C0000221A77BB6803F01003002B20D0FB6822
:10285C0003F01003002B1BD07B681B686FF0100279
:10286C001A617B6808221A777B681B68DB6903F4A2
:10287C004073002B03D0786800F026F905E07868E7
:10288C0000F019F9786800F028F97B6800221A77B3
:10289C00BB6803F00103002B0CD0FB6803F00103B1
:1028AC00002B07D07B681B686FF001021A617868F7
:1028BC00FEF792F9BB6803F08003002B0CD0FB6889
:1028CC0003F08003002B07D07B681B686FF080023D
:1028DC001A61786800F06FFABB6803F04003002BB4
:1028EC000CD0FB6803F04003002B07D07B681B68FF
:1028FC006FF040021A61786800F0F8F8BB6803F0DA
:10290C002003002B0CD0FB6803F02003002B07D016
:10291C007B681B686FF020021A61786800F042FA3D
:10292C0000BF1037BD4680BD80B584B000AF786065
:10293C0039600023FB737B6893F83C30012B01D189
:10294C000223B4E07B68012283F83C207B680222DE
:10295C0083F83D207B681B689B68BB60BB6823F0D9
:10296C007703BB60BB6823F47F43BB607B681B6849
:10297C00BA689A603B681B68B3F5005F3ED0B3F54C
:10298C00005F00F28780B3F5805F00F08680B3F5BE
:10299C00805F7FD8702B1AD0702B7BD8602B50D0D7
:1029AC00602B77D8502B3CD0502B73D8402B58D061
:1029BC00402B6FD8302B64D0302B6BD8202B60D0B1
:1029CC00202B67D8002B5CD0102B5AD062E07B6890
:1029DC0018683B6899683B685A683B68DB6800F08C
:1029EC006AF97B681B689B68BB60BB6843F0770324
:1029FC00BB607B681B68BA689A604FE07B6818689C
:102A0C003B6899683B685A683B68DB6800F053F98F
:102A1C007B681B689A687B681B6842F480429A60EA
:102A2C003CE07B6818683B6859683B68DB681A4671
:102A3C0000F0CAF87B681B685021184600F021F999
:102A4C002CE07B6818683B6859683B68DB681A4661
:102A5C0000F0E8F87B681B686021184600F011F95B
:102A6C001CE07B6818683B6859683B68DB681A4651
:102A7C0000F0AAF87B681B684021184600F001F9A9
:102A8C000CE07B681A683B681B681946104600F01E
:102A9C00F8F803E00123FB7300E000BF7B68012220
:102AAC0083F83D207B68002283F83C20FB7B184692
:102ABC001037BD4680BD80B483B000AF786000BFD6
:102ACC000C37BD4680BC704780B483B000AF7860D3
:102ADC0000BF0C37BD4680BC704780B483B000AFDC
:102AEC00786000BF0C37BD4680BC704780B483B0A3
:102AFC0000AF786000BF0C37BD4680BC704700004B
:102B0C0080B485B000AF786039607B681B68FB606F
:102B1C007B682B4A934207D07B68B3F1804F03D07C
:102B2C007B68284A934208D1FB6823F07003FB6052
:102B3C003B685B68FA681343FB607B68204A9342EE
:102B4C0007D07B68B3F1804F03D07B681D4A93425A
:102B5C0008D1FB6823F44073FB603B68DB68FA68C0
:102B6C001343FB60FB6823F080023B685B691343F3
:102B7C00FB607B68FA681A603B689A687B68DA626B
:102B8C003B681A687B689A627B680D4A934203D152
:102B9C003B681A697B681A637B6801225A617B68FF
:102BAC001B6903F00103002B05D07B681B6923F024
:102BBC0001027B681A6100BF1437BD4680BC7047A8
:102BCC00002C01400004004080B487B000AFF860D6
:102BDC00B9607A60FB681B6A7B61FB681B6A23F037
:102BEC000102FB681A62FB689B693B613B6923F03D
:102BFC00F0033B617B681B013A6913433B617B69C2
:102C0C0023F00A037B617A69BB6813437B61FB6821
:102C1C003A699A61FB687A691A6200BF1C37BD4633
:102C2C0080BC704780B487B000AFF860B9607A6040
:102C3C00FB681B6A7B61FB681B6A23F01002FB6854
:102C4C001A62FB689B693B613B6923F470433B61EF
:102C5C007B681B033A6913433B617B6923F0A00338
:102C6C007B61BB681B017A6913437B61FB683A6922
:102C7C009A61FB687A691A6200BF1C37BD4680BC3A
:102C8C00704780B485B000AF786039607B689B6812
:102C9C00FB60FB6823F07003FB603A68FB6813432E
:102CAC0043F00703FB607B68FA689A6000BF143737
:102CBC00BD4680BC704780B487B000AFF860B96087
:102CCC007A603B60FB689B687B617B6923F47F4384
:102CDC007B613B681A027B681A43BB6813437A69B1
:102CEC0013437B61FB687A699A6000BF1C37BD4651
:102CFC0080BC704780B485B000AF786039607B6869
:102D0C0093F83C30012B01D1022341E07B68012276
:102D1C0083F83C207B68022283F83D207B681B688B
:102D2C005B68FB607B681B689B68BB60FB6823F07F
:102D3C007003FB603B681B68FA681343FB607B689D
:102D4C001B68FA685A607B681B68144A934209D066
:102D5C007B681B68B3F1804F04D07B681B68104AFA
:102D6C0093420CD1BB6823F08003BB603B685B686B
:102D7C00BA681343BB607B681B68BA689A607B684F
:102D8C00012283F83D207B68002283F83C2000233D
:102D9C0018461437BD4680BC704700BF002C01405C
:102DAC000004004080B483B000AF786000BF0C37E3
:102DBC00BD4680BC704780B483B000AF786000BF64
:102DCC000C37BD4680BC704770B500260C4D0D4CC1
:102DDC00641BA410A64209D100F022F800260A4D6B
:102DEC000A4C641BA410A64205D170BD55F8043BD7
:102DFC0098470136EEE755F8043B98470136F2E761
:102E0C00682E0008682E0008682E00086C2E00083A
:102E1C0003460244934200D1704703F8011BF9E7C3
:102E2C00F8B500BFF8BC08BC9E467047F8B500BFAB
:082E3C00F8BC08BC9E4670477B
:102E44000000000000000000010203040607080956
:102E540002030405060708090A0B0C0D0E0F1010D7
:042E64000102000067
:042E6800310100082C
:042E6C000D0100084C
:102E7000000801400008014000080140000800105F
:102E8000002000000A00000000127A00100000007C
:042E9000010000003D
:04000005080017A137
:00000001FF
