:020000040800F2
:1000000000280020E1140008A90C0008AF0C00082B
:10001000B50C0008BB0C0008C10C00080000000073
:10002000000000000000000000000000C70C0008F5
:10003000D30C000800000000DF0C0008EB0C0008E7
:100040002915000829150008291500082915000898
:100050002915000829150008291500082915000888
:100060002915000829150008291500082915000878
:100070002915000829150008291500082915000868
:100080002915000829150008291500082915000858
:100090002915000829150008291500082915000848
:1000A0002915000829150008291500082915000838
:1000B000F90C0008291500080000000029150008A7
:1000C00029150008000000000000000029150008A4
:1000D0000000000029150008291500080000000094
:1000E000291500082915000829150008000000003E
:1000F0000000000000000000000000000000000000
:0C01000000000000000000005FF808F1A3
:10010C0010B5054C237833B9044B13B10448AFF345
:10011C0000800123237010BD24000020000000008B
:10012C006C2B000808B5034B1BB103490348AFF314
:10013C00008008BD00000000280000206C2B000887
:10014C0090B583B000AF0023FB716BE0FA79FB79BB
:10015C003849895C384AD154FA79FB793749895C3A
:10016C00344AD154FB79364A52F82320FB7935496D
:10017C0031F81330FC791946104601F0BBFC0346EC
:10018C001A462E4B1A55FB792B4AD25CFB7929491E
:10019C00CB5C9A423DD1FB79264AD25CFB7927494C
:1001AC00CB5C9A4235D1FB79244AD25CFB79264947
:1001BC00CB5C9A4214D0FA79FB792049895C224AAB
:1001CC00D154FB791D4AD35C002B27D1FB791F4AF4
:1001DC000121D154FB791E4A642122F813101DE031
:1001EC00FB79194AD35C002B18D1FB79184A32F8E9
:1001FC001320013A91B2164A22F81310FB79144AD3
:10020C0032F81330002B09D1FB79124A0121D15459
:10021C0004E0FB790F4A0021D15400E000BFFB79C8
:10022C000133FB71FB79022B90D900BF00BF0C3757
:10023C00BD4690BD44000020400000204800002036
:10024C00000000200C0000204C000020500000207A
:10025C00580000205400002080B483B000AF034647
:10026C00FB71FB79022B01D900230BE0FB79084AC7
:10027C00D35C012B05D1FB79054A0021D154012314
:10028C0000E0002318460C37BD4680BC704700BF09
:10029C005000002080B582B000AF03460A46FB71C7
:1002AC001346BB714FF47A71002000F035FCFB79DA
:1002BC000749BA79CA54064B1B78054A527811463D
:1002CC00184600F055F800BF0837BD4680BD00BF8A
:1002DC007400002080B500AF002000F00DFC034638
:1002EC00002B20D0114B1B78002B1CD00F4B5B78B4
:1002FC00002B18D04FF47A71002000F00DFC0B4B42
:10030C001B78013BDAB2094B1A70084B5B78013B46
:10031C00DAB2064B5A70054B1B78044A52781146D8
:10032C00184600F025F800BF80BD00BF7400002007
:10033C0080B500AF012000F0DFFB0346002B13D08B
:10034C006421012000F0E8FB084B1B78032B02D939
:10035C00064B00221A70054B1B785A1CD1B2034A6B
:10036C001170184600F040F800BF80BD5E00002000
:10037C0080B483B000AF03460A46FB711346BB71D1
:10038C00FB79174AA2FB0323DB08DAB2154B1A7070
:10039C00FA79134BA3FB0213D9080B469B000B44B1
:1003AC005B00D31ADAB20F4B5A70BB790C4AA2FB22
:1003BC000323DB08DAB20B4B9A70BA79084BA3FB18
:1003CC000213D9080B469B000B445B00D31ADAB21C
:1003DC00044BDA7000BF0C37BD4680BC704700BFC1
:1003EC00CDCCCCCC7800002080B582B000AF0346D9
:1003FC00FB71FB79032B73D801A252F823F000BFD9
:10040C001D0400085104000885040008B904000804
:10041C00002202213F4801F084FB012204213D48C7
:10042C0001F07FFB012208213A4801F07AFB0122FE
:10043C001021384801F075FB374B1B78184600F03B
:10044C006DF862E001220221324801F06AFB0022C1
:10045C000421304801F065FB012208212D4801F0F0
:10046C0060FB012210212B4801F05BFB2A4B5B78CF
:10047C00184600F053F848E001220221254801F00B
:10048C0050FB01220421234801F04BFB00220821E0
:10049C00204801F046FB012210211E4801F041FBCF
:1004AC001D4B9B78184600F039F82EE001220221F2
:1004BC00184801F036FB01220421164801F031FBEB
:1004CC0001220821134801F02CFB002210211148B5
:1004DC0001F027FB104BDB78184600F01FF814E0F6
:1004EC00012202210B4801F01CFB012204210948C6
:1004FC0001F017FB01220821064801F012FB012232
:10050C001021044801F00DFB00BF00BF0837BD46A9
:10051C0080BD00BF000801407800002080B582B08B
:10052C0000AF0346FB71FB79092B00F27F8101A21E
:10053C0052F823F069050008B1050008F905000818
:10054C004106000889060008D106000819070008B2
:10055C0061070008A9070008F10700080022012123
:10056C00C64801F0DEFA00220221C44801F0D9FA93
:10057C0000220421C14801F0D4FA00220821BF480E
:10058C0001F0CFFA00221021BC4801F0CAFA002277
:10059C002021BA4801F0C5FA01224021B74801F0E8
:1005AC00C0FA67E101220121B44801F0BAFA002235
:1005BC000221B24801F0B5FA00220421AF4801F043
:1005CC00B0FA01220821AD4801F0ABFA012210214A
:1005DC00AA4801F0A6FA01222021A84801F0A1FAAC
:1005EC0001224021A54801F09CFA43E1002201219F
:1005FC00A24801F096FA00220221A04801F091FADB
:10060C00012204219D4801F08CFA002208219B480C
:10061C0001F087FA00221021984801F082FA012299
:10062C002021964801F07DFA00224021934801F0E8
:10063C0078FA1FE100220121904801F072FA0022A1
:10064C0002218E4801F06DFA002204218B4801F042
:10065C0068FA00220821894801F063FA012210216E
:10066C00864801F05EFA01222021844801F059FAF3
:10067C0000224021814801F054FAFBE001220121C3
:10068C007E4801F04EFA002202217C4801F049FA22
:10069C0000220421794801F044FA0122082177480C
:1006AC0001F03FFA01221021744801F03AFA0022BD
:1006BC002021724801F035FA002240216F4801F0E8
:1006CC0030FAD7E0002201216C4801F02AFA01220D
:1006DC0002216A4801F025FA00220421674801F042
:1006EC0020FA00220821654801F01BFA0122102192
:1006FC00624801F016FA00222021604801F011FA3C
:10070C00002240215D4801F00CFAB3E000220121E7
:10071C005A4801F006FA01220221584801F001FA68
:10072C0000220421554801F0FCF90022082153480D
:10073C0001F0F7F900221021504801F0F2F90022E3
:10074C0020214E4801F0EDF9002240214B4801F0E8
:10075C00E8F98FE000220121484801F0E2F900227B
:10076C000221464801F0DDF900220421434801F042
:10077C00D8F901220821414801F0D3F901221021B6
:10078C003E4801F0CEF9012220213C4801F0C9F984
:10079C0001224021394801F0C4F96BE0002201210B
:1007AC00364801F0BEF900220221344801F0B9F9B3
:1007BC0000220421314801F0B4F9002208212F480D
:1007CC0001F0AFF9002210212C4801F0AAF9002207
:1007DC0020212A4801F0A5F900224021274801F0E8
:1007EC00A0F947E000220121244801F09AF90022E7
:1007FC000221224801F095F9002204211F4801F042
:10080C0090F9002208211D4801F08BF901221021DA
:10081C001A4801F086F900222021184801F081F9CC
:10082C0000224021154801F07CF923E0012201212E
:10083C00124801F076F901220221104801F071F9F9
:10084C00012204210D4801F06CF9012208210B480A
:10085C0001F067F901221021084801F062F9012228
:10086C002021064801F05DF901224021034801F0E6
:10087C0058F900BF00BF0837BD4680BD000C0140D1
:10088C0080B500AF00F04CFE00F032F800F0C0F87C
:10089C0000F06AF8124801F0ABFD4FF4FA61002049
:1008AC0000F03AF94FF47A71012000F035F94FF469
:1008BC007A71022000F030F90A4B05221A700A4BAB
:1008CC0002221A70094B03221A7000F007FC00F088
:1008DC001DFA00F021FBFFF72BFDFFF7FBFCF4E703
:1008EC0080000020760000207100002070000020A5
:1008FC0080B590B000AF07F11803282200211846EC
:10090C0002F026F93B1D00221A605A609A60DA60E8
:10091C001A610223BB610123BB621023FB6200231B
:10092C007B6307F11803184601F02CF90346002BE2
:10093C0001D000F0DBF80F237B600023BB600023A9
:10094C00FB6000233B6100237B613B1D00211846AB
:10095C0001F098FB0346002B01D000F0C7F800BF54
:10096C004037BD4680BD000080B586B000AF07F1B2
:10097C00080300221A605A609A60DA603B46002233
:10098C001A605A60214B4FF080421A601F4B41F69F
:10099C003F725A601D4B00229A601C4B0922DA6090
:1009AC001A4B00221A61194B00229A61174801F068
:1009BC00CFFC0346002B01D000F098F84FF4805385
:1009CC00BB6007F108031946104801F04DFE0346C1
:1009DC00002B01D000F08AF800233B6000237B60E1
:1009EC003B461946094802F025F80346002B01D076
:1009FC0000F07CF8054B5B68044AD2681146184637
:100A0C0000F0A2F800BF1837BD4680BD8000002062
:100A1C0080B586B000AF07F1080300221A605A6057
:100A2C009A60DA60284B9B69274A43F00403936170
:100A3C00254B9B6903F004037B607B68224B9B690D
:100A4C00214A43F0080393611F4B9B6903F0080391
:100A5C003B603B68002240F2FE711C4801F061F8DB
:100A6C0000227F211A4801F05CF840F2FE73BB6053
:100A7C000123FB6000233B6102237B6107F1080328
:100A8C001946124800F0BCFE7F23BB600123FB60BB
:100A9C0000233B6102237B6107F1080319460C48D4
:100AAC0000F0AEFE4FF46053BB600023FB600123EB
:100ABC003B6107F108031946044800F0A1FE00BF92
:100ACC001837BD4680BD00BF001002400008014031
:100ADC00000C014080B582B000AF786000F054F893
:100AEC00FFF72EFB00BF0837BD4680BD80B400AFBA
:100AFC0072B600BFFEE7000080B483B000AF0346BF
:100B0C00FB71FB79034AD35C18460C37BD4680BC9D
:100B1C00704700BF6C00002080B483B000AF034668
:100B2C003960FB71FB79064A0021D154FB790549E8
:100B3C003A6841F8232000BF0C37BD4680BC704793
:100B4C006C0000206000002080B584B000AF78609D
:100B5C00396001F0D5FBF8607B6801333A680132EB
:100B6C0002FB03F34FF47A7202FB03F2FB68B2FB55
:100B7C00F3F3044A1360034B0A221A6000BF1037C8
:100B8C00BD4680BD1400002080B483B000AF0023AC
:100B9C00FB711DE0FB79134A52F82330002B14D063
:100BAC00FB79104A52F823100F4B1A68FB798A1AFA
:100BBC000C4941F82320FB790A4A52F82330002BC8
:100BCC0003D1FB79094A0121D154FB790133FB7123
:100BDC00FB79022BDED900BF00BF0C37BD4680BCB1
:100BEC00704700BF60000020140000206C00002043
:100BFC0080B485B000AF154B9B69144A43F00103D8
:100C0C009361124B9B6903F00103BB60BB680F4BF4
:100C1C00DB690E4A43F08053D3610C4BDB6903F064
:100C2C0080537B607B680A4B5B68FB60FB6823F03E
:100C3C00E063FB60FB6843F08063FB60044AFB6885
:100C4C00536000BF1437BD4680BC70470010024093
:100C5C000000014080B584B000AF78607B681B68F1
:100C6C00B3F1804F13D10C4BDB690B4A43F00103FA
:100C7C00D361094BDB6903F00103FB60FB680022C5
:100C8C0000211C2000F085FD1C2000F09EFD00BF03
:100C9C001037BD4680BD00BF0010024080B400AFCD
:100CAC00FEE780B400AFFEE780B400AFFEE780B48F
:100CBC0000AFFEE780B400AFFEE780B400AF00BF2A
:100CCC00BD4680BC704780B400AF00BFBD4680BC41
:100CDC00704780B400AF00BFBD4680BC704780B584
:100CEC0000AF00F063FC00BF80BD000080B500AF1A
:100CFC00024801F0C9FB00BF80BD00BF800000208E
:100D0C0080B400AF00BFBD4680BC704780B500AF5B
:100D1C007B4B1B78063B032B00F2E78001A252F8B9
:100D2C0023F000BF410D0008B50D0008270E000888
:100D3C00850E000800222021724800F0F2FE0122EC
:100D4C004021704800F0EDFE012280216D4800F03A
:100D5C00E8FE01224FF480716A4800F0E2FE0122A5
:100D6C004FF40071674800F0DCFE00224FF4806104
:100D7C00644800F0D6FE644B5B78002B09D1604BC5
:100D8C0007221A70614B1B7819460120FFF782FA73
:100D9C00ADE00020FFF760FA0346002B00F0A780BF
:100DAC00574B00221A70A2E000222021554800F077
:100DBC00B8FE01224021534800F0B3FE01228021ED
:100DCC00504800F0AEFE01224FF480714D4800F007
:100DDC00A8FE00224FF400714A4800F0A2FE012246
:100DEC004FF48061474800F09CFE474B5B78002B2A
:100DFC0003D0454B1B78002B7BD1414B08221A703A
:100E0C00434B1B7819460020FFF744FA414B1B78E3
:100E1C0019460120FFF73EFA6BE0012220213948E8
:100E2C0000F07FFE01224021364800F07AFE0022BD
:100E3C008021344800F075FE00224FF48071314857
:100E4C0000F06FFE01224FF400712E4800F069FE95
:100E5C0001224FF480612B4800F063FE2A4B1B7873
:100E6C00002B48D1264B09221A70284B1B781946A7
:100E7C000020FFF70FFA3EE001222021214800F06C
:100E8C0050FE002240211F4800F04BFE0122802121
:100E9C001C4800F046FE00224FF48071194800F007
:100EAC0040FE01224FF40071164800F03AFE012278
:100EBC004FF48061134800F034FE134B1B78002B69
:100ECC0003D0114B5B78002B17D10D4B06221A70F7
:100EDC00104B1B7819460020FFF7DCF90C4B1B78E4
:100EEC0019460120FFF7D6F907E000BF06E000BF66
:100EFC0004E000BF02E000BF00E000BF00BF80BD07
:100F0C007C000020000801407400002071000020CB
:100F1C00700000207600002080B500AF6D4B1B7870
:100F2C000B3B032B00F2CA8001A252F823F000BF46
:100F3C004D0F0008D70F0008191000088D1000087D
:100F4C0000222021644800F0ECFD0122402162487F
:100F5C0000F0E7FD012280215F4800F0E2FD012254
:100F6C004FF480715C4800F0DCFD01224FF40071FD
:100F7C00594800F0D6FD00224FF48061564800F02D
:100F8C00D0FD0020FFF7B8FD0346002B03D0514BDA
:100F9C0000221A7094E00020FFF75EF90346002B44
:100FAC0003D04C4B02221A708AE00120FFF754F94F
:100FBC000346002B00F08480464B0C221A704FF431
:100FCC00FA610020FFF7A8FD7AE001224FF480714E
:100FDC00414800F0A6FD00224FF400713E4800F09D
:100FEC00A0FD01224FF480613B4800F09AFD0020E7
:100FFC00FFF782FD0346002B64D0364B0D221A708E
:10100C0042F210710020FFF787FD5BE001222021E6
:10101C00314800F086FD012240212F4800F081FD6F
:10102C00002280212C4800F07CFD00224FF48071BE
:10103C00294800F076FD01224FF40071264800F09B
:10104C0070FD01224FF48061234800F06AFD0020FE
:10105C00FFF752FD0346002B03D01E4B00221A70E3
:10106C0032E00120FFF7F8F80346002B2CD0194B87
:10107C000E221A704FF4FA610020FFF74DFD23E0A9
:10108C0001222021144800F04CFD0022402112487E
:10109C0000F047FD012280210F4800F042FD0020A6
:1010AC00FFF72AFD0346002B10D00A4B0B221A70B7
:1010BC0042F210710020FFF72FFD07E000BF06E0A1
:1010CC0000BF04E000BF02E000BF00E000BF00BFB3
:1010DC0080BD00BF7C0000200008014080B500AF3F
:1010EC00BF4B1B78052B00F2E08101A252F823F0D4
:1010FC001511000837110008D111000885120008DD
:10110C0041130008FD130008B54B01221A70002191
:10111C000020FFF7BFF800210120FFF7BBF841F2D8
:10112C0088310020FFF7F8FCCAE100222021AD48ED
:10113C0000F0F7FC00224021AA4800F0F2FC00224B
:10114C008021A84800F0EDFC00224FF48071A548E6
:10115C0000F0E7FC00224FF40071A24800F0E1FC23
:10116C0000224FF480619F4800F0DBFC0020FFF769
:10117C00C3FC0346002B05D10220FFF76DF8034694
:10118C00002B0FD0964B06221A70974B1B781946E2
:10119C000020FFF77FF8954B1B7819460120FFF7CD
:1011AC0079F884E10020FFF757F80346002B00F094
:1011BC007E818B4B02221A7041F288310020FFF79E
:1011CC00ABFC74E10220FFF797FC0346002B1FD009
:1011DC004FF4FA710220FFF79FFC2021814800F0A8
:1011EC00B8FC40217F4800F0B4FC80217D4800F021
:1011FC00B0FC4FF480717B4800F0ABFC4FF40071F5
:10120C00784800F0A6FC4FF48061764800F0A1FC11
:10121C000020FFF771FC0346002B0ED0704B06220A
:10122C001A70714B1B7819460020FFF733F86F4B7F
:10123C001B7819460120FFF72DF80220FFF70CF858
:10124C000346002B08D0664B0B221A7042F2107129
:10125C000020FFF761FC2CE10020FEF7FDFF0346A8
:10126C00002B00F026815E4B03221A7041F288316C
:10127C000020FFF751FC1CE101224021594800F0ED
:10128C0050FC01228021574800F04BFC01224FF406
:10129C000071544800F045FC01224FF48061514824
:1012AC0000F03FFC0220FFF727FC0346002B0DD07B
:1012BC004FF4FA710220FFF72FFC2021494800F06F
:1012CC0048FC4FF48071474800F043FC0020FFF7C6
:1012DC0013FC0346002B0ED0414B06221A70424BD6
:1012EC001B7819460020FEF7D5FF404B1B7819469A
:1012FC000120FEF7CFFF0220FEF7AEFF0346002BC6
:10130C0008D0374B06221A7040F6B8310020FFF790
:10131C0003FCD0E00020FEF79FFF0346002B00F0FB
:10132C00CA802F4B04221A7041F288310020FFF73B
:10133C00F3FBC0E0012220212A4800F0F2FB01223D
:10134C008021284800F0EDFB01224FF480712548E4
:10135C0000F0E7FB01224FF48061224800F0E1FB32
:10136C000220FFF7C9FB0346002B0DD04FF4FA7196
:10137C000220FFF7D1FB40211A4800F0EAFB4FF4A2
:10138C000071184800F0E5FB0020FFF7B5FB0346A1
:10139C00002B07D0124B06221A7040F6B8310020F1
:1013AC00FFF7BAFB0220FEF757FF0346002B08D0CD
:1013BC000B4B06221A7040F6B8310020FFF7ACFB3D
:1013CC007BE00020FEF748FF0346002B75D0044B52
:1013DC0005221A7041F288310020FFF79DFB6CE06A
:1013EC007C000020000801407600002070000020E6
:1013FC0001222021334800F094FB01224021314886
:10140C0000F08FFB01224FF480712E4800F089FB15
:10141C0001224FF400712B4800F083FB0220FFF7F0
:10142C006BFB0346002B0DD04FF4FA710220FFF733
:10143C0073FB8021234800F08CFB4FF48061214822
:10144C0000F087FB0020FFF757FB0346002B0ED064
:10145C001D4B06221A701D4B1B7819460020FEF7F7
:10146C0019FF1B4B1B7819460120FEF713FF0220B6
:10147C00FEF7F2FE0346002B08D0134B06221A701F
:10148C0040F6B8310020FFF747FB18E00020FEF7CC
:10149C00E3FE0346002B12D00B4B01221A7041F2D3
:1014AC0088310020FFF738FB09E000BF08E000BFDF
:1014BC0006E000BF04E000BF02E000BF00E000BF98
:1014CC0000BF80BD000801407C0000207600002099
:1014DC0070000020FFF714FC0B480C490C4A002349
:1014EC0002E0D458C4500433C4188C42F9D3094ACE
:1014FC00094C002301E013600432A242FBD301F03B
:10150C0003FBFFF7BDF9704700000020240000200A
:10151C00B02B000824000020CC000020FEE70000C7
:10152C0080B500AF084B1B68074A43F010031360EB
:10153C00032000F023F90F2000F008F8FFF758FB08
:10154C000023184680BD00BF0020024080B582B049
:10155C0000AF7860124B1A68124B1B7819464FF487
:10156C007A73B3FBF1F3B2FBF3F3184600F03BF9DB
:10157C000346002B01D001230EE07B680F2B0AD809
:10158C00002279684FF0FF3000F003F9064A7B68BF
:10159C001360002300E0012318460837BD4680BDC8
:1015AC0018000020200000201C00002080B400AF98
:1015BC00054B1B781A46054B1B681344034A1360F2
:1015CC0000BFBD4680BC704720000020C800002032
:1015DC0080B400AF024B1B681846BD4680BC7047F8
:1015EC00C800002080B485B000AF78607B6803F041
:1015FC000703FB600C4BDB68BB60BA684FF6FF035C
:10160C001340BB60FB681A02BB68134343F0BF6313
:10161C0043F40033BB60044ABB68D36000BF14378B
:10162C00BD4680BC704700BF00ED00E080B400AF49
:10163C00044BDB681B0A03F007031846BD4680BC4D
:10164C00704700BF00ED00E080B483B000AF0346EC
:10165C00FB7197F90730002B0BDBFB7903F01F02B2
:10166C00064997F907305B09012000FA02F241F8AC
:10167C00232000BF0C37BD4680BC704700E100E062
:10168C0080B483B000AF03463960FB7197F9073023
:10169C00002B0ADB3B68DAB20C4997F907301201D0
:1016AC00D2B20B4483F800230AE03B68DAB2084953
:1016BC00FB7903F00F03043B1201D2B20B441A76F0
:1016CC0000BF0C37BD4680BC704700BF00E100E096
:1016DC0000ED00E080B489B000AFF860B9607A60CA
:1016EC00FB6803F00703FB61FB69C3F10703042BE1
:1016FC0028BF0423BB61FB690433062B02D9FB69A9
:10170C00033B00E000237B614FF0FF32BB6902FA20
:10171C0003F3DA43BB681A407B699A404FF0FF3100
:10172C007B6901FA03F3D9437B680B4013431846DA
:10173C002437BD4680BC704780B582B000AF78605E
:10174C007B68013BB3F1807F01D301230FE00A4A90
:10175C007B68013B53600F214FF0FF30FFF790FF88
:10176C00054B00229A60044B07221A60002318468E
:10177C000837BD4680BD00BF10E000E080B582B0E8
:10178C0000AF78607868FFF72DFF00BF0837BD46C3
:10179C0080BD80B586B000AF0346B9607A60FB733C
:1017AC0000237B61FFF742FF78617A68B96878693A
:1017BC00FFF790FF024697F90F3011461846FFF7D6
:1017CC005FFF00BF1837BD4680BD80B582B000AF4B
:1017DC000346FB7197F907301846FFF735FF00BF3A
:1017EC000837BD4680BD80B582B000AF78607868A0
:1017FC00FFF7A2FF034618460837BD4680BD000020
:10180C0080B48BB000AF7860396000237B6200231A
:10181C003B6248E101227B6A02FA03F3FB613B68FD
:10182C001B68FA691340BB61BA69FB699A4240F0C4
:10183C0037813B685B68A34A93425ED0A14A9342CE
:10184C0075D8A14A934258D09F4A93426FD89F4A69
:10185C00934252D09D4A934269D89D4A93424CD0B0
:10186C009B4A934263D89B4A934246D0994A9342EF
:10187C005DD8122B2AD8122B59D801A252F823F07A
:10188C0007190008E1180008F318000835190008BA
:10189C003B1900083B1900083B1900083B190008CC
:1018AC003B1900083B1900083B1900083B190008BC
:1018BC003B1900083B1900083B1900083B190008AC
:1018CC003B190008E9180008FD180008824A9342E9
:1018DC0013D02CE03B68DB683B6229E03B68DB689B
:1018EC0004333B6224E03B68DB6808333B621FE057
:1018FC003B68DB680C333B621AE03B689B68002B4F
:10190C0002D104233B6213E03B689B68012B05D199
:10191C0008233B627B68FA691A6109E008233B6281
:10192C007B68FA695A6103E000233B6200E000BF68
:10193C00BB69FF2B01D87B6801E07B6804337B61BA
:10194C00BB69FF2B02D87B6A9B0002E07B6A083BD9
:10195C009B003B617B691A680F213B6901FA03F319
:10196C00DB431A40396A3B6901FA03F31A437B697A
:10197C001A603B685B6803F08053002B00F090808A
:10198C00564B9B69554A43F001039361534B9B693A
:10199C0003F00103BB60BB68514A7B6A9B080233AE
:1019AC0052F82330FB607B6A03F003039B000F2289
:1019BC0002FA03F3DB43FA681340FB607B68494A85
:1019CC0093420DD07B68484A934207D07B68474AC4
:1019DC00934201D1022304E0032302E0012300E03F
:1019EC0000237A6A02F0030292009340FA681343D0
:1019FC00FB603B497B6A9B080233FA6841F8232061
:101A0C003B685B6803F48013002B06D0384B9A6854
:101A1C003749BB6913438B6006E0354B9A68BB6949
:101A2C00DB43334913408B603B685B6803F4001362
:101A3C00002B06D02E4BDA682D49BB691343CB60C3
:101A4C0006E02B4BDA68BB69DB4329491340CB60BA
:101A5C003B685B6803F40033002B06D0244B5A68B8
:101A6C002349BB6913434B6006E0214B5A68BB69A1
:101A7C00DB431F4913404B603B685B6803F48033C6
:101A8C00002B06D01A4B1A681949BB6913430B601B
:101A9C0006E0174B1A68BB69DB43154913400B6012
:101AAC007B6A01337B623B681A687B6A22FA03F318
:101ABC00002B7FF4AFAE00BF00BF2C37BD4680BCFF
:101ACC00704700BF000032100000311000002210DF
:101ADC000000211000001210000011100010024034
:101AEC000000014000080140000C014000100140C2
:101AFC000004014080B485B000AF78600B467B8059
:101B0C007B689A687B881340002B02D00123FB73FF
:101B1C0001E00023FB73FB7B18461437BD4680BCE9
:101B2C00704780B483B000AF78600B467B8013465F
:101B3C007B707B78002B03D07A887B681A6103E07A
:101B4C007B881A047B681A6100BF0C37BD4680BCC9
:101B5C00704780B485B000AF78600B467B807B68A3
:101B6C00DB68FB607A88FB6813401A04FB68D94376
:101B7C007B880B401A437B681A6100BF1437BD4643
:101B8C0080BC704780B586B000AF78607B68002B56
:101B9C0001D101236CE27B681B6803F00103002B6D
:101BAC0000F08780924B5B6803F00C03042B0CD085
:101BBC008F4B5B6803F00C03082B12D18C4B5B68CA
:101BCC0003F48033B3F5803F0BD1894B1B6803F4CE
:101BDC000033002B6CD07B685B68002B68D1012331
:101BEC0046E27B685B68B3F5803F06D1804B1B688F
:101BFC007F4A43F4803313602EE07B685B68002BD4
:101C0C000CD17B4B1B687A4A23F480331360784BDE
:101C1C001B68774A23F4802313601DE07B685B68A4
:101C2C00B3F5A02F0CD1724B1B68714A43F480237F
:101C3C0013606F4B1B686E4A43F4803313600BE0E8
:101C4C006B4B1B686A4A23F480331360684B1B6828
:101C5C00674A23F4802313607B685B68002B13D0E6
:101C6C00FFF7B6FC386108E0FFF7B2FC02463B69AF
:101C7C00D31A642B01D90323FAE15D4B1B6803F4DF
:101C8C000033002BF0D014E0FFF7A2FC386108E021
:101C9C00FFF79EFC02463B69D31A642B01D9032340
:101CAC00E6E1534B1B6803F40033002BF0D100E04A
:101CBC0000BF7B681B6803F00203002B63D04C4B06
:101CCC005B6803F00C03002B0BD0494B5B6803F0F3
:101CDC000C03082B1CD1464B5B6803F48033002BA0
:101CEC0016D1434B1B6803F00203002B05D07B6815
:101CFC001B69012B01D00123BAE13D4B1B6823F07A
:101D0C00F8027B685B69DB00394913430B603AE0EE
:101D1C007B681B69002B20D0364B01221A60FFF721
:101D2C0057FC386108E0FFF753FC02463B69D31AB5
:101D3C00022B01D903239BE12D4B1B6803F00203FB
:101D4C00002BF0D02A4B1B6823F0F8027B685B69F0
:101D5C00DB00274913430B6015E0264B00221A6069
:101D6C00FFF736FC386108E0FFF732FC02463B69AE
:101D7C00D31A022B01D903237AE11D4B1B6803F004
:101D8C000203002BF0D17B681B6803F00803002BC7
:101D9C003AD07B689B69002B19D0174B01221A6033
:101DAC00FFF716FC386108E0FFF712FC02463B69AE
:101DBC00D31A022B01D903235AE10D4B5B6A03F0B2
:101DCC000203002BF0D0012000F0A4FA1CE00A4B17
:101DDC0000221A60FFF7FCFB38610FE0FFF7F8FBFD
:101DEC0002463B69D31A022B08D9032340E100BFFA
:101DFC000010024000004242800442429E4B5B6A4B
:101E0C0003F00203002BE9D17B681B6803F0040389
:101E1C00002B00F0A6800023FB75974BDB6903F0C9
:101E2C008053002B0DD1944BDB69934A43F08053C4
:101E3C00D361914BDB6903F08053BB60BB6801231A
:101E4C00FB758E4B1B6803F48073002B18D18B4BE6
:101E5C001B688A4A43F480731360FFF7B9FB38613F
:101E6C0008E0FFF7B5FB02463B69D31A642B01D996
:101E7C000323FDE0814B1B6803F48073002BF0D02F
:101E8C007B68DB68012B06D17B4B1B6A7A4A43F0DB
:101E9C00010313622DE07B68DB68002B0CD1764BC1
:101EAC001B6A754A23F001031362734B1B6A724A57
:101EBC0023F0040313621CE07B68DB68052B0CD158
:101ECC006D4B1B6A6C4A43F0040313626A4B1B6A2A
:101EDC00694A43F0010313620BE0674B1B6A664AC5
:101EEC0023F001031362644B1B6A634A23F004035F
:101EFC0013627B68DB68002B15D0FFF769FB386138
:101F0C000AE0FFF765FB02463B69D31A41F28832BF
:101F1C00934201D90323ABE0574B1B6A03F0020336
:101F2C00002BEED014E0FFF753FB38610AE0FFF70B
:101F3C004FFB02463B69D31A41F28832934201D9D6
:101F4C00032395E04C4B1B6A03F00203002BEED1EC
:101F5C00FB7D012B05D1484BDB69474A23F08053AD
:101F6C00D3617B68DB69002B00F08180424B5B689E
:101F7C0003F00C03082B61D07B68DB69022B46D184
:101F8C003F4B00221A60FFF723FB386108E0FFF794
:101F9C001FFB02463B69D31A022B01D9032367E0CE
:101FAC00354B1B6803F00073002BF0D17B681B6A68
:101FBC00B3F5803F08D1304B5B6823F400327B686B
:101FCC009B682D4913434B602B4B5B6823F47412B5
:101FDC007B68196A7B685B6A0B43274913434B6028
:101FEC00274B01221A60FFF7F3FA386108E0FFF77C
:101FFC00EFFA02463B69D31A022B01D9032337E0CF
:10200C001D4B1B6803F00073002BF0D02FE01C4B12
:10201C0000221A60FFF7DCFA386108E0FFF7D8FA03
:10202C0002463B69D31A022B01D9032320E0124B41
:10203C001B6803F00073002BF0D118E07B68DB69A0
:10204C00012B01D1012313E00B4B5B68FB60FB6898
:10205C0003F480327B681B6A9A4206D1FB6803F456
:10206C0070127B685B6A9A4201D0012300E0002366
:10207C0018461837BD4680BD001002400070004065
:10208C006000424280B584B000AF786039607B68F4
:10209C00002B01D10123D0E06A4B1B6803F007032E
:1020AC003A689A4210D9674B1B6823F007026549BE
:1020BC003B6813430B60634B1B6803F007033A68E0
:1020CC009A4201D00123B8E07B681B6803F002033D
:1020DC00002B20D07B681B6803F00403002B05D079
:1020EC00594B5B68584A43F4E06353607B681B6848
:1020FC0003F00803002B05D0534B5B68524A43F4A2
:10210C0060535360504B5B6823F0F0027B689B6814
:10211C004D4913434B607B681B6803F00103002B94
:10212C0040D07B685B68012B07D1474B1B6803F4DD
:10213C000033002B15D101237FE07B685B68022BF9
:10214C0007D1414B1B6803F00073002B09D101230D
:10215C0073E03D4B1B6803F00203002B01D10123FC
:10216C006BE0394B5B6823F003027B685B68364994
:10217C0013434B60FFF72CFAF8600AE0FFF728FADC
:10218C000246FB68D31A41F28832934201D90323E9
:10219C0053E02D4B5B6803F00C027B685B689B0083
:1021AC009A42EBD1274B1B6803F007033A689A421B
:1021BC0010D2244B1B6823F0070222493B681343BF
:1021CC000B60204B1B6803F007033A689A4201D05E
:1021DC00012332E07B681B6803F00403002B08D05A
:1021EC00194B5B6823F4E0627B68DB681649134388
:1021FC004B607B681B6803F00803002B09D0124B63
:10220C005B6823F460527B681B69DB000E49134347
:10221C004B6000F021F802460B4B5B681B0903F086
:10222C000F030A49CB5C22FA03F3094A1360094BEA
:10223C001B681846FFF78AF9002318461037BD466D
:10224C0080BD00BF0020024000100240842B00081B
:10225C00180000201C00002080B487B000AF0023C1
:10226C00FB600023BB6000237B6100237B600023A9
:10227C003B611E4B5B68FB60FB6803F00C03042B9B
:10228C0002D0082B03D027E0194B3B6127E0FB68F9
:10229C009B0C03F00F03174AD35C7B60FB6803F4C1
:1022AC008033002B10D0114B5B685B0C03F00103E7
:1022BC00114AD35CBB607B680D4A02FB03F2BB681E
:1022CC00B2FBF3F37B6104E07B680C4A02FB03F383
:1022DC007B617B693B6102E0054B3B6100BF3B6965
:1022EC0018461C37BD4680BC704700BF001002402A
:1022FC0000127A00942B0008A42B000800093D0062
:10230C0080B400AF024B1B681846BD4680BC7047BA
:10231C001800002080B485B000AF78600A4B1B68B1
:10232C000A4AA2FB03235B0A7A6802FB03F3FB60F5
:10233C0000BFFB685A1EFA60002BF9D100BF00BF2A
:10234C001437BD4680BC704718000020D34D621076
:10235C0080B582B000AF78607B68002B01D101237F
:10236C0041E07B6893F83D30DBB2002B06D17B68F3
:10237C00002283F83C207868FEF76CFC7B68022214
:10238C0083F83D207B681A687B6804331946104635
:10239C0000F056FA7B68012283F846207B68012204
:1023AC0083F83E207B68012283F83F207B68012262
:1023BC0083F840207B68012283F841207B6801224E
:1023CC0083F842207B68012283F843207B6801223A
:1023DC0083F844207B68012283F845207B68012226
:1023EC0083F83D20002318460837BD4680BD000009
:1023FC0080B485B000AF78607B6893F83D30DBB279
:10240C00012B01D0012335E07B68022283F83D20AB
:10241C007B681B68DA687B681B6842F00102DA6033
:10242C007B681B68164A934209D07B681B68B3F122
:10243C00804F04D07B681B68124A934211D17B6891
:10244C001B689B6803F00703FB60FB68062B10D02E
:10245C007B681B681A687B681B6842F001021A6073
:10246C0007E07B681B681A687B681B6842F00102F6
:10247C001A60002318461437BD4680BC704700BF55
:10248C00002C01400004004080B584B000AF78609F
:10249C007B681B68DB68FB607B681B681B69BB6027
:1024AC00BB6803F00203002B20D0FB6803F002038F
:1024BC00002B1BD07B681B686FF002021A617B68D3
:1024CC0001221A777B681B689B6903F00303002BBE
:1024DC0003D0786800F098F905E0786800F08BF983
:1024EC00786800F09AF97B6800221A77BB6803F0D1
:1024FC000403002B20D0FB6803F00403002B1BD03B
:10250C007B681B686FF004021A617B6802221A77E1
:10251C007B681B689B6903F44073002B03D07868BD
:10252C0000F072F905E0786800F065F9786800F061
:10253C0074F97B6800221A77BB6803F00803002B40
:10254C0020D0FB6803F00803002B1BD07B681B68B2
:10255C006FF008021A617B6804221A777B681B688B
:10256C00DB6903F00303002B03D0786800F04CF90F
:10257C0005E0786800F03FF9786800F04EF97B6868
:10258C0000221A77BB6803F01003002B20D0FB68E5
:10259C0003F01003002B1BD07B681B686FF010023C
:1025AC001A617B6808221A777B681B68DB6903F465
:1025BC004073002B03D0786800F026F905E07868AA
:1025CC0000F019F9786800F028F97B6800221A7776
:1025DC00BB6803F00103002B0CD0FB6803F0010374
:1025EC00002B07D07B681B686FF001021A617868BA
:1025FC00FEF770FABB6803F08003002B0CD0FB686D
:10260C0003F08003002B07D07B681B686FF08002FF
:10261C001A61786800F06FFABB6803F04003002B76
:10262C000CD0FB6803F04003002B07D07B681B68C1
:10263C006FF040021A61786800F0F8F8BB6803F09C
:10264C002003002B0CD0FB6803F02003002B07D0D9
:10265C007B681B686FF020021A61786800F042FA00
:10266C0000BF1037BD4680BD80B584B000AF786028
:10267C0039600023FB737B6893F83C30012B01D14C
:10268C000223B4E07B68012283F83C207B680222A1
:10269C0083F83D207B681B689B68BB60BB6823F09C
:1026AC007703BB60BB6823F47F43BB607B681B680C
:1026BC00BA689A603B681B68B3F5005F3ED0B3F50F
:1026CC00005F00F28780B3F5805F00F08680B3F581
:1026DC00805F7FD8702B1AD0702B7BD8602B50D09A
:1026EC00602B77D8502B3CD0502B73D8402B58D024
:1026FC00402B6FD8302B64D0302B6BD8202B60D074
:10270C00202B67D8002B5CD0102B5AD062E07B6852
:10271C0018683B6899683B685A683B68DB6800F04E
:10272C006AF97B681B689B68BB60BB6843F07703E6
:10273C00BB607B681B68BA689A604FE07B6818685E
:10274C003B6899683B685A683B68DB6800F053F952
:10275C007B681B689A687B681B6842F480429A60AD
:10276C003CE07B6818683B6859683B68DB681A4634
:10277C0000F0CAF87B681B685021184600F021F95C
:10278C002CE07B6818683B6859683B68DB681A4624
:10279C0000F0E8F87B681B686021184600F011F91E
:1027AC001CE07B6818683B6859683B68DB681A4614
:1027BC0000F0AAF87B681B684021184600F001F96C
:1027CC000CE07B681A683B681B681946104600F0E1
:1027DC00F8F803E00123FB7300E000BF7B680122E3
:1027EC0083F83D207B68002283F83C20FB7B184655
:1027FC001037BD4680BD80B483B000AF786000BF99
:10280C000C37BD4680BC704780B483B000AF786095
:10281C0000BF0C37BD4680BC704780B483B000AF9E
:10282C00786000BF0C37BD4680BC704780B483B065
:10283C0000AF786000BF0C37BD4680BC704700000D
:10284C0080B485B000AF786039607B681B68FB6032
:10285C007B682B4A934207D07B68B3F1804F03D03F
:10286C007B68284A934208D1FB6823F07003FB6015
:10287C003B685B68FA681343FB607B68204A9342B1
:10288C0007D07B68B3F1804F03D07B681D4A93421D
:10289C0008D1FB6823F44073FB603B68DB68FA6883
:1028AC001343FB60FB6823F080023B685B691343B6
:1028BC00FB607B68FA681A603B689A687B68DA622E
:1028CC003B681A687B689A627B680D4A934203D115
:1028DC003B681A697B681A637B6801225A617B68C2
:1028EC001B6903F00103002B05D07B681B6923F0E7
:1028FC0001027B681A6100BF1437BD4680BC70476B
:10290C00002C01400004004080B487B000AFF86098
:10291C00B9607A60FB681B6A7B61FB681B6A23F0F9
:10292C000102FB681A62FB689B693B613B6923F0FF
:10293C00F0033B617B681B013A6913433B617B6984
:10294C0023F00A037B617A69BB6813437B61FB68E4
:10295C003A699A61FB687A691A6200BF1C37BD46F6
:10296C0080BC704780B487B000AFF860B9607A6003
:10297C00FB681B6A7B61FB681B6A23F01002FB6817
:10298C001A62FB689B693B613B6923F470433B61B2
:10299C007B681B033A6913433B617B6923F0A003FB
:1029AC007B61BB681B017A6913437B61FB683A69E5
:1029BC009A61FB687A691A6200BF1C37BD4680BCFD
:1029CC00704780B485B000AF786039607B689B68D5
:1029DC00FB60FB6823F07003FB603A68FB681343F1
:1029EC0043F00703FB607B68FA689A6000BF1437FA
:1029FC00BD4680BC704780B487B000AFF860B9604A
:102A0C007A603B60FB689B687B617B6923F47F4346
:102A1C007B613B681A027B681A43BB6813437A6973
:102A2C0013437B61FB687A699A6000BF1C37BD4613
:102A3C0080BC704780B485B000AF786039607B682B
:102A4C0093F83C30012B01D1022341E07B68012239
:102A5C0083F83C207B68022283F83D207B681B684E
:102A6C005B68FB607B681B689B68BB60FB6823F042
:102A7C007003FB603B681B68FA681343FB607B6860
:102A8C001B68FA685A607B681B68144A934209D029
:102A9C007B681B68B3F1804F04D07B681B68104ABD
:102AAC0093420CD1BB6823F08003BB603B685B682E
:102ABC00BA681343BB607B681B68BA689A607B6812
:102ACC00012283F83D207B68002283F83C20002300
:102ADC0018461437BD4680BC704700BF002C01401F
:102AEC000004004080B483B000AF786000BF0C37A6
:102AFC00BD4680BC704780B483B000AF786000BF27
:102B0C000C37BD4680BC704770B500260C4D0D4C83
:102B1C00641BA410A64209D100F022F800260A4D2D
:102B2C000A4C641BA410A64205D170BD55F8043B99
:102B3C0098470136EEE755F8043B98470136F2E723
:102B4C00A82B0008A82B0008A82B0008AC2B000809
:102B5C0003460244934200D1704703F8011BF9E786
:102B6C00F8B500BFF8BC08BC9E467047F8B500BF6E
:082B7C00F8BC08BC9E4670473E
:102B84000000000000000000010203040607080919
:102B940002030405060708090A0B0C0D0E0F10109A
:042BA400010200002A
:042BA80031010008EF
:042BAC000D0100080F
:102BB0000008014000080140000801400008001022
:102BC000002000000A00000000127A00100000003F
:042BD0000100000000
:04000005080014E1FA
:00000001FF
